{
  "address": "0x2116cffc1990A07612c019A3bd318A65250ED9c6",
  "abi": [
    {
      "inputs": [
        {
          "internalType": "string",
          "name": "name",
          "type": "string"
        },
        {
          "internalType": "string",
          "name": "version",
          "type": "string"
        },
        {
          "components": [
            {
              "internalType": "uint256",
              "name": "blocksPerTurn",
              "type": "uint256"
            },
            {
              "internalType": "uint256",
              "name": "maxPlayersSize",
              "type": "uint256"
            },
            {
              "internalType": "uint256",
              "name": "minPlayersSize",
              "type": "uint256"
            },
            {
              "internalType": "address",
              "name": "rankTokenAddress",
              "type": "address"
            },
            {
              "internalType": "uint256",
              "name": "blocksToJoin",
              "type": "uint256"
            },
            {
              "internalType": "uint256",
              "name": "gamePrice",
              "type": "uint256"
            },
            {
              "internalType": "uint256",
              "name": "joinGamePrice",
              "type": "uint256"
            },
            {
              "internalType": "uint256",
              "name": "maxTurns",
              "type": "uint256"
            },
            {
              "internalType": "uint256",
              "name": "numWinners",
              "type": "uint256"
            }
          ],
          "internalType": "struct BestOfInit.contractInitializer",
          "name": "initializer",
          "type": "tuple"
        }
      ],
      "name": "init",
      "outputs": [],
      "stateMutability": "nonpayable",
      "type": "function"
    }
  ],
  "transactionHash": "0x81bac1de750dd50f882576baddac47f2fa53af51a5acb5b6371c79f875e45398",
  "args": [],
  "numDeployments": 6,
  "solcInputHash": "7e6730544421ae7605100198573e9f77",
  "bytecode": "0x608060405234801561001057600080fd5b50610a6d806100206000396000f3fe608060405234801561001057600080fd5b506004361061002b5760003560e01c80632bceb50e14610030575b600080fd5b61004361003e366004610905565b610045565b005b7fc8fcad8db84d3cc18b4c41d551ea0ee66dd599cde068d998e57d5e09332c131f60209081527f699d9daa71b280d05a152715774afa0a81a312594b2d731d6b0b2552b7d6f69f805460017fffffffffffffffffffffffffffffffffffffffffffffffffffffffffffffff0091821681179092557ff97e938d8af42f52387bb74b8b526fda8f184cc2aa534340a8d75a88fbecc77580548216831790557f65d510a5d8f7ef134ec444f7f34ee808c8eeb5177cdfd16be0c40fe1ab43369580548216831790557f7f5828d0000000000000000000000000000000000000000000000000000000006000527f5622121b47b8cd0120c4efe45dd5483242f54a3d49bd7679be565d47694918c3805490911690911790558351848201208351848301207fe5b6a7afa77789577f2802f0da58895f660e5798c5c11b2ea18b0a53bd65d3aa8290557fe5b6a7afa77789577f2802f0da58895f660e5798c5c11b2ea18b0a53bd65d3ab819055467fe5b6a7afa77789577f2802f0da58895f660e5798c5c11b2ea18b0a53bd65d3a8819055604080517f8b73c3c69bb8fe3d512ecc4cf759cc79239f7b179b0ffacaa9a75d522b39400f8187018190528183018690526060820185905260808201939093523060a0808301919091528251808303909101815260c090910190915280519401939093207fc8fcad8db84d3cc18b4c41d551ea0ee66dd599cde068d998e57d5e09332c131c93907fe5b6a7afa77789577f2802f0da58895f660e5798c5c11b2ea18b0a53bd65d3a79081556002810180547fffffffffffffffffffffffff000000000000000000000000000000000000000016301790556005810182905560006102da7f7acf15cdb85906c3736403f86bf7ccb69a25bb6dbdcde1cbcbf35fe2a64df85290565b60a0880151815560c0880151600182015560608801516040517f01ffc9a70000000000000000000000000000000000000000000000000000000081527fd9b67a260000000000000000000000000000000000000000000000000000000060048201529192509073ffffffffffffffffffffffffffffffffffffffff8216906301ffc9a79060240160206040518083038186803b15801561037957600080fd5b505afa15801561038d573d6000803e3d6000fd5b505050506040513d601f19601f820116820180604052508101906103b19190610a0e565b61044e5760405162461bcd60e51b815260206004820152604860248201527f426573744f6647616d652d3e696e69743a2072616e6b20746f6b656e2061646460448201527f7265737320646f6573206e6f7420737570706f7274204945524331313535206960648201527f6e74657266616365000000000000000000000000000000000000000000000000608482015260a4015b60405180910390fd5b6060808901516003840180547fffffffffffffffffffffff0000000000000000000000000000000000000000001673ffffffffffffffffffffffffffffffffffffffff90921691909117740100000000000000000000000000000000000000001790556040805160c0810182526000808252602082018190529181018290529182018190526080820181905260a0820152885181526020808a0151908201526040808a0151908201526080808a0151606083015260e08a01519082015261010089015160a082015261051f8161052c565b5050505050505050505050565b80517f91591bea3fc8863c74b4740fa2dfd9fd428a1e509b60555e4d1e8d8028901f2d9061059c5760405162461bcd60e51b815260206004820152601360248201527f696e69742d3e626c6f636b735065725475726e000000000000000000000000006044820152606401610445565b60208201516105ed5760405162461bcd60e51b815260206004820152601260248201527f696e69742d3e6d6178506172747953697a6500000000000000000000000000006044820152606401610445565b604082015161063e5760405162461bcd60e51b815260206004820152601260248201527f696e69742d3e6d696e506172747953697a6500000000000000000000000000006044820152606401610445565b608082015161068f5760405162461bcd60e51b815260206004820152600e60248201527f696e69742d3e6d61785475726e730000000000000000000000000000000000006044820152606401610445565b60a0820151158015906106a9575081604001518260a00151105b6106f55760405162461bcd60e51b815260206004820152601060248201527f696e69742d3e6e756d57696e6e657273000000000000000000000000000000006044820152606401610445565b60608201516107465760405162461bcd60e51b815260206004820152601260248201527f696e69742d3e626c6f636b73546f4a6f696e00000000000000000000000000006044820152606401610445565b81604001518260200151101561079e5760405162461bcd60e51b815260206004820152601460248201527f696e69742d3e6d6178506c617965727353697a650000000000000000000000006044820152606401610445565b815181556020820151600182015560408201516002820155606082015160038201556080820151600482015560a090910151600590910155565b7f4e487b7100000000000000000000000000000000000000000000000000000000600052604160045260246000fd5b604051610120810167ffffffffffffffff8111828210171561082b5761082b6107d8565b60405290565b600082601f83011261084257600080fd5b813567ffffffffffffffff8082111561085d5761085d6107d8565b604051601f83017fffffffffffffffffffffffffffffffffffffffffffffffffffffffffffffffe0908116603f011681019082821181831017156108a3576108a36107d8565b816040528381528660208588010111156108bc57600080fd5b836020870160208301376000602085830101528094505050505092915050565b803573ffffffffffffffffffffffffffffffffffffffff8116811461090057600080fd5b919050565b600080600083850361016081121561091c57600080fd5b843567ffffffffffffffff8082111561093457600080fd5b61094088838901610831565b9550602087013591508082111561095657600080fd5b5061096387828801610831565b935050610120807fffffffffffffffffffffffffffffffffffffffffffffffffffffffffffffffc08301121561099857600080fd5b6109a0610807565b91506040860135825260608601356020830152608086013560408301526109c960a087016108dc565b606083015260c0860135608083015260e086013560a08301526101008087013560c08401528187013560e0840152610140870135818401525050809150509250925092565b600060208284031215610a2057600080fd5b81518015158114610a3057600080fd5b939250505056fea26469706673582212204d93e011bebff9c3d862b829c44a18ecefd7a8f185d00d48157a0d0c9fb42cfa64736f6c63430008080033",
  "devdoc": {
    "kind": "dev",
    "methods": {},
    "version": 1
  },
  "userdoc": {
    "kind": "user",
    "methods": {},
    "version": 1
  },
  "storageLayout": {
    "storage": [],
    "types": null
  }
}