{
  "address": "0x4C43009E6cD5E1BB6b768C14aB0b48d27084f1df",
  "abi": [
    {
      "anonymous": false,
      "inputs": [
        {
          "indexed": true,
          "internalType": "bytes32",
          "name": "domainName",
          "type": "bytes32"
        }
      ],
      "name": "DomainActivated",
      "type": "event"
    },
    {
      "anonymous": false,
      "inputs": [
        {
          "indexed": true,
          "internalType": "bytes32",
          "name": "domainName",
          "type": "bytes32"
        },
        {
          "indexed": true,
          "internalType": "bytes32[]",
          "name": "changes",
          "type": "bytes32[]"
        }
      ],
      "name": "DomainChangesAreLive",
      "type": "event"
    },
    {
      "anonymous": false,
      "inputs": [
        {
          "indexed": true,
          "internalType": "bytes32",
          "name": "domainName",
          "type": "bytes32"
        }
      ],
      "name": "DomainDeactivated",
      "type": "event"
    },
    {
      "anonymous": false,
      "inputs": [
        {
          "indexed": true,
          "internalType": "bytes32",
          "name": "domainName",
          "type": "bytes32"
        },
        {
          "indexed": true,
          "internalType": "uint256",
          "name": "newFee",
          "type": "uint256"
        }
      ],
      "name": "DomainFeeChanged",
      "type": "event"
    },
    {
      "anonymous": false,
      "inputs": [
        {
          "indexed": true,
          "internalType": "uint256",
          "name": "domainIndex",
          "type": "uint256"
        },
        {
          "indexed": true,
          "internalType": "bytes32",
          "name": "NewDomainName",
          "type": "bytes32"
        }
      ],
      "name": "DomainNameChangeRequested",
      "type": "event"
    },
    {
      "anonymous": false,
      "inputs": [
        {
          "indexed": true,
          "internalType": "bytes32",
          "name": "domainName",
          "type": "bytes32"
        },
        {
          "indexed": false,
          "internalType": "uint256",
          "name": "amount",
          "type": "uint256"
        }
      ],
      "name": "DomainTTLChangeRequested",
      "type": "event"
    },
    {
      "anonymous": false,
      "inputs": [
        {
          "indexed": true,
          "internalType": "uint256",
          "name": "domainIndex",
          "type": "uint256"
        },
        {
          "indexed": true,
          "internalType": "uint256",
          "name": "newAmount",
          "type": "uint256"
        }
      ],
      "name": "FreeRegistrationsChanged",
      "type": "event"
    },
    {
      "anonymous": false,
      "inputs": [
        {
          "indexed": true,
          "internalType": "address",
          "name": "registrar",
          "type": "address"
        },
        {
          "indexed": false,
          "internalType": "uint256",
          "name": "freeRegistrationsNumber",
          "type": "uint256"
        },
        {
          "indexed": true,
          "internalType": "uint256",
          "name": "fee",
          "type": "uint256"
        },
        {
          "indexed": true,
          "internalType": "bytes32",
          "name": "domainName",
          "type": "bytes32"
        },
        {
          "indexed": false,
          "internalType": "uint256",
          "name": "referrerReward",
          "type": "uint256"
        },
        {
          "indexed": false,
          "internalType": "uint256",
          "name": "referralDiscount",
          "type": "uint256"
        }
      ],
      "name": "InitializedDomain",
      "type": "event"
    },
    {
      "anonymous": false,
      "inputs": [
        {
          "indexed": true,
          "internalType": "bytes32",
          "name": "domainName",
          "type": "bytes32"
        },
        {
          "indexed": false,
          "internalType": "uint256",
          "name": "reward",
          "type": "uint256"
        },
        {
          "indexed": false,
          "internalType": "uint256",
          "name": "discount",
          "type": "uint256"
        },
        {
          "indexed": true,
          "internalType": "uint256",
          "name": "freeNumber",
          "type": "uint256"
        }
      ],
      "name": "ReferralProgramChanged",
      "type": "event"
    },
    {
      "anonymous": false,
      "inputs": [
        {
          "components": [
            {
              "internalType": "address",
              "name": "wallet",
              "type": "address"
            },
            {
              "internalType": "bytes32",
              "name": "name",
              "type": "bytes32"
            },
            {
              "internalType": "bytes32",
              "name": "id",
              "type": "bytes32"
            },
            {
              "internalType": "uint96",
              "name": "nonce",
              "type": "uint96"
            },
            {
              "internalType": "bytes32",
              "name": "domainName",
              "type": "bytes32"
            }
          ],
          "indexed": false,
          "internalType": "struct LibMultipass.Record",
          "name": "refferrer",
          "type": "tuple"
        },
        {
          "components": [
            {
              "internalType": "address",
              "name": "wallet",
              "type": "address"
            },
            {
              "internalType": "bytes32",
              "name": "name",
              "type": "bytes32"
            },
            {
              "internalType": "bytes32",
              "name": "id",
              "type": "bytes32"
            },
            {
              "internalType": "uint96",
              "name": "nonce",
              "type": "uint96"
            },
            {
              "internalType": "bytes32",
              "name": "domainName",
              "type": "bytes32"
            }
          ],
          "indexed": false,
          "internalType": "struct LibMultipass.Record",
          "name": "newRecord",
          "type": "tuple"
        },
        {
          "indexed": true,
          "internalType": "bytes32",
          "name": "domainName",
          "type": "bytes32"
        }
      ],
      "name": "Referred",
      "type": "event"
    },
    {
      "anonymous": false,
      "inputs": [
        {
          "indexed": true,
          "internalType": "bytes32",
          "name": "domainName",
          "type": "bytes32"
        },
        {
          "components": [
            {
              "internalType": "address",
              "name": "wallet",
              "type": "address"
            },
            {
              "internalType": "bytes32",
              "name": "name",
              "type": "bytes32"
            },
            {
              "internalType": "bytes32",
              "name": "id",
              "type": "bytes32"
            },
            {
              "internalType": "uint96",
              "name": "nonce",
              "type": "uint96"
            },
            {
              "internalType": "bytes32",
              "name": "domainName",
              "type": "bytes32"
            }
          ],
          "indexed": false,
          "internalType": "struct LibMultipass.Record",
          "name": "NewRecord",
          "type": "tuple"
        }
      ],
      "name": "Registered",
      "type": "event"
    },
    {
      "anonymous": false,
      "inputs": [
        {
          "indexed": true,
          "internalType": "bytes32",
          "name": "domainName",
          "type": "bytes32"
        },
        {
          "indexed": true,
          "internalType": "address",
          "name": "registrar",
          "type": "address"
        }
      ],
      "name": "RegistrarChangeRequested",
      "type": "event"
    },
    {
      "anonymous": false,
      "inputs": [
        {
          "components": [
            {
              "internalType": "address",
              "name": "wallet",
              "type": "address"
            },
            {
              "internalType": "bytes32",
              "name": "name",
              "type": "bytes32"
            },
            {
              "internalType": "bytes32",
              "name": "id",
              "type": "bytes32"
            },
            {
              "internalType": "uint96",
              "name": "nonce",
              "type": "uint96"
            },
            {
              "internalType": "bytes32",
              "name": "domainName",
              "type": "bytes32"
            }
          ],
          "indexed": true,
          "internalType": "struct LibMultipass.Record",
          "name": "newRecord",
          "type": "tuple"
        },
        {
          "indexed": true,
          "internalType": "bytes32",
          "name": "oldName",
          "type": "bytes32"
        },
        {
          "indexed": true,
          "internalType": "bytes32",
          "name": "domainName",
          "type": "bytes32"
        }
      ],
      "name": "UserRecordModified",
      "type": "event"
    },
    {
      "anonymous": false,
      "inputs": [
        {
          "indexed": true,
          "internalType": "bytes32",
          "name": "domainName",
          "type": "bytes32"
        },
        {
          "indexed": true,
          "internalType": "bytes32[]",
          "name": "changes",
          "type": "bytes32[]"
        }
      ],
      "name": "changesQeueCanceled",
      "type": "event"
    },
    {
      "anonymous": false,
      "inputs": [
        {
          "indexed": true,
          "internalType": "uint256",
          "name": "amount",
          "type": "uint256"
        },
        {
          "indexed": true,
          "internalType": "address",
          "name": "account",
          "type": "address"
        }
      ],
      "name": "fundsWithdawn",
      "type": "event"
    },
    {
      "anonymous": false,
      "inputs": [
        {
          "indexed": true,
          "internalType": "bytes32",
          "name": "domainName",
          "type": "bytes32"
        },
        {
          "indexed": true,
          "internalType": "address",
          "name": "wallet",
          "type": "address"
        },
        {
          "indexed": true,
          "internalType": "bytes32",
          "name": "id",
          "type": "bytes32"
        },
        {
          "indexed": false,
          "internalType": "bytes32",
          "name": "name",
          "type": "bytes32"
        }
      ],
      "name": "nameDeleted",
      "type": "event"
    },
    {
      "inputs": [
        {
          "internalType": "bytes32",
          "name": "domainName",
          "type": "bytes32"
        }
      ],
      "name": "activateDomain",
      "outputs": [],
      "stateMutability": "nonpayable",
      "type": "function"
    },
    {
      "inputs": [
        {
          "internalType": "bytes32",
          "name": "domainName",
          "type": "bytes32"
        },
        {
          "internalType": "uint256",
          "name": "fee",
          "type": "uint256"
        }
      ],
      "name": "changeFee",
      "outputs": [],
      "stateMutability": "nonpayable",
      "type": "function"
    },
    {
      "inputs": [
        {
          "internalType": "uint256",
          "name": "referrerReward",
          "type": "uint256"
        },
        {
          "internalType": "uint256",
          "name": "freeRegistrations",
          "type": "uint256"
        },
        {
          "internalType": "uint256",
          "name": "referralDiscount",
          "type": "uint256"
        },
        {
          "internalType": "bytes32",
          "name": "domainName",
          "type": "bytes32"
        }
      ],
      "name": "changeReferralProgram",
      "outputs": [],
      "stateMutability": "nonpayable",
      "type": "function"
    },
    {
      "inputs": [
        {
          "internalType": "bytes32",
          "name": "domainName",
          "type": "bytes32"
        },
        {
          "internalType": "address",
          "name": "newRegistrar",
          "type": "address"
        }
      ],
      "name": "changeRegistrar",
      "outputs": [],
      "stateMutability": "nonpayable",
      "type": "function"
    },
    {
      "inputs": [
        {
          "internalType": "bytes32",
          "name": "domainName",
          "type": "bytes32"
        }
      ],
      "name": "deactivateDomain",
      "outputs": [],
      "stateMutability": "nonpayable",
      "type": "function"
    },
    {
      "inputs": [
        {
          "components": [
            {
              "internalType": "bytes32",
              "name": "domainName",
              "type": "bytes32"
            },
            {
              "internalType": "address",
              "name": "wallet",
              "type": "address"
            },
            {
              "internalType": "bytes32",
              "name": "name",
              "type": "bytes32"
            },
            {
              "internalType": "bytes32",
              "name": "id",
              "type": "bytes32"
            },
            {
              "internalType": "bytes32",
              "name": "targetDomain",
              "type": "bytes32"
            }
          ],
          "internalType": "struct LibMultipass.NameQuery",
          "name": "query",
          "type": "tuple"
        }
      ],
      "name": "deleteName",
      "outputs": [],
      "stateMutability": "nonpayable",
      "type": "function"
    },
    {
      "inputs": [],
      "name": "getBalance",
      "outputs": [
        {
          "internalType": "uint256",
          "name": "",
          "type": "uint256"
        }
      ],
      "stateMutability": "view",
      "type": "function"
    },
    {
      "inputs": [],
      "name": "getContractState",
      "outputs": [
        {
          "internalType": "uint256",
          "name": "",
          "type": "uint256"
        }
      ],
      "stateMutability": "view",
      "type": "function"
    },
    {
      "inputs": [
        {
          "internalType": "bytes32",
          "name": "domainName",
          "type": "bytes32"
        }
      ],
      "name": "getDomainState",
      "outputs": [
        {
          "components": [
            {
              "internalType": "bytes32",
              "name": "name",
              "type": "bytes32"
            },
            {
              "internalType": "uint256",
              "name": "fee",
              "type": "uint256"
            },
            {
              "internalType": "uint256",
              "name": "freeRegistrationsNumber",
              "type": "uint256"
            },
            {
              "internalType": "uint256",
              "name": "referrerReward",
              "type": "uint256"
            },
            {
              "internalType": "uint256",
              "name": "referralDiscount",
              "type": "uint256"
            },
            {
              "internalType": "bool",
              "name": "isActive",
              "type": "bool"
            },
            {
              "internalType": "address",
              "name": "registrar",
              "type": "address"
            },
            {
              "internalType": "uint24",
              "name": "ttl",
              "type": "uint24"
            },
            {
              "internalType": "uint256",
              "name": "registerSize",
              "type": "uint256"
            }
          ],
          "internalType": "struct LibMultipass.Domain",
          "name": "",
          "type": "tuple"
        }
      ],
      "stateMutability": "view",
      "type": "function"
    },
    {
      "inputs": [
        {
          "internalType": "uint256",
          "name": "index",
          "type": "uint256"
        }
      ],
      "name": "getDomainStateByIdx",
      "outputs": [
        {
          "components": [
            {
              "internalType": "bytes32",
              "name": "name",
              "type": "bytes32"
            },
            {
              "internalType": "uint256",
              "name": "fee",
              "type": "uint256"
            },
            {
              "internalType": "uint256",
              "name": "freeRegistrationsNumber",
              "type": "uint256"
            },
            {
              "internalType": "uint256",
              "name": "referrerReward",
              "type": "uint256"
            },
            {
              "internalType": "uint256",
              "name": "referralDiscount",
              "type": "uint256"
            },
            {
              "internalType": "bool",
              "name": "isActive",
              "type": "bool"
            },
            {
              "internalType": "address",
              "name": "registrar",
              "type": "address"
            },
            {
              "internalType": "uint24",
              "name": "ttl",
              "type": "uint24"
            },
            {
              "internalType": "uint256",
              "name": "registerSize",
              "type": "uint256"
            }
          ],
          "internalType": "struct LibMultipass.Domain",
          "name": "",
          "type": "tuple"
        }
      ],
      "stateMutability": "view",
      "type": "function"
    },
    {
      "inputs": [
        {
          "components": [
            {
              "internalType": "bytes32",
              "name": "domainName",
              "type": "bytes32"
            },
            {
              "internalType": "address",
              "name": "wallet",
              "type": "address"
            },
            {
              "internalType": "bytes32",
              "name": "name",
              "type": "bytes32"
            },
            {
              "internalType": "bytes32",
              "name": "id",
              "type": "bytes32"
            },
            {
              "internalType": "bytes32",
              "name": "targetDomain",
              "type": "bytes32"
            }
          ],
          "internalType": "struct LibMultipass.NameQuery",
          "name": "query",
          "type": "tuple"
        }
      ],
      "name": "getModifyPrice",
      "outputs": [
        {
          "internalType": "uint256",
          "name": "",
          "type": "uint256"
        }
      ],
      "stateMutability": "view",
      "type": "function"
    },
    {
      "inputs": [
        {
          "internalType": "address",
          "name": "registrar",
          "type": "address"
        },
        {
          "internalType": "uint256",
          "name": "freeRegistrationsNumber",
          "type": "uint256"
        },
        {
          "internalType": "uint256",
          "name": "fee",
          "type": "uint256"
        },
        {
          "internalType": "bytes32",
          "name": "domainName",
          "type": "bytes32"
        },
        {
          "internalType": "uint256",
          "name": "referrerReward",
          "type": "uint256"
        },
        {
          "internalType": "uint256",
          "name": "referralDiscount",
          "type": "uint256"
        }
      ],
      "name": "initializeDomain",
      "outputs": [],
      "stateMutability": "nonpayable",
      "type": "function"
    },
    {
      "inputs": [
        {
          "internalType": "bytes32",
          "name": "domainName",
          "type": "bytes32"
        },
        {
          "components": [
            {
              "internalType": "bytes32",
              "name": "domainName",
              "type": "bytes32"
            },
            {
              "internalType": "address",
              "name": "wallet",
              "type": "address"
            },
            {
              "internalType": "bytes32",
              "name": "name",
              "type": "bytes32"
            },
            {
              "internalType": "bytes32",
              "name": "id",
              "type": "bytes32"
            },
            {
              "internalType": "bytes32",
              "name": "targetDomain",
              "type": "bytes32"
            }
          ],
          "internalType": "struct LibMultipass.NameQuery",
          "name": "query",
          "type": "tuple"
        },
        {
          "internalType": "bytes32",
          "name": "newName",
          "type": "bytes32"
        },
        {
          "internalType": "bytes",
          "name": "registrarSignature",
          "type": "bytes"
        },
        {
          "internalType": "uint256",
          "name": "signatureDeadline",
          "type": "uint256"
        }
      ],
      "name": "modifyUserName",
      "outputs": [],
      "stateMutability": "payable",
      "type": "function"
    },
    {
      "inputs": [
        {
          "components": [
            {
              "internalType": "address",
              "name": "wallet",
              "type": "address"
            },
            {
              "internalType": "bytes32",
              "name": "name",
              "type": "bytes32"
            },
            {
              "internalType": "bytes32",
              "name": "id",
              "type": "bytes32"
            },
            {
              "internalType": "uint96",
              "name": "nonce",
              "type": "uint96"
            },
            {
              "internalType": "bytes32",
              "name": "domainName",
              "type": "bytes32"
            }
          ],
          "internalType": "struct LibMultipass.Record",
          "name": "newRecord",
          "type": "tuple"
        },
        {
          "internalType": "bytes32",
          "name": "domainName",
          "type": "bytes32"
        },
        {
          "internalType": "bytes",
          "name": "registrarSignature",
          "type": "bytes"
        },
        {
          "internalType": "uint256",
          "name": "signatureDeadline",
          "type": "uint256"
        },
        {
          "components": [
            {
              "internalType": "bytes32",
              "name": "domainName",
              "type": "bytes32"
            },
            {
              "internalType": "address",
              "name": "wallet",
              "type": "address"
            },
            {
              "internalType": "bytes32",
              "name": "name",
              "type": "bytes32"
            },
            {
              "internalType": "bytes32",
              "name": "id",
              "type": "bytes32"
            },
            {
              "internalType": "bytes32",
              "name": "targetDomain",
              "type": "bytes32"
            }
          ],
          "internalType": "struct LibMultipass.NameQuery",
          "name": "referrer",
          "type": "tuple"
        },
        {
          "internalType": "bytes",
          "name": "referralCode",
          "type": "bytes"
        }
      ],
      "name": "register",
      "outputs": [],
      "stateMutability": "payable",
      "type": "function"
    },
    {
      "inputs": [
        {
          "components": [
            {
              "internalType": "bytes32",
              "name": "domainName",
              "type": "bytes32"
            },
            {
              "internalType": "address",
              "name": "wallet",
              "type": "address"
            },
            {
              "internalType": "bytes32",
              "name": "name",
              "type": "bytes32"
            },
            {
              "internalType": "bytes32",
              "name": "id",
              "type": "bytes32"
            },
            {
              "internalType": "bytes32",
              "name": "targetDomain",
              "type": "bytes32"
            }
          ],
          "internalType": "struct LibMultipass.NameQuery",
          "name": "query",
          "type": "tuple"
        }
      ],
      "name": "resolveRecord",
      "outputs": [
        {
          "internalType": "bool",
          "name": "",
          "type": "bool"
        },
        {
          "components": [
            {
              "internalType": "address",
              "name": "wallet",
              "type": "address"
            },
            {
              "internalType": "bytes32",
              "name": "name",
              "type": "bytes32"
            },
            {
              "internalType": "bytes32",
              "name": "id",
              "type": "bytes32"
            },
            {
              "internalType": "uint96",
              "name": "nonce",
              "type": "uint96"
            },
            {
              "internalType": "bytes32",
              "name": "domainName",
              "type": "bytes32"
            }
          ],
          "internalType": "struct LibMultipass.Record",
          "name": "",
          "type": "tuple"
        }
      ],
      "stateMutability": "view",
      "type": "function"
    },
    {
      "inputs": [
        {
          "internalType": "address",
          "name": "to",
          "type": "address"
        }
      ],
      "name": "withrawFunds",
      "outputs": [],
      "stateMutability": "nonpayable",
      "type": "function"
    }
  ],
  "transactionHash": "0xee0a549ab985092b08180417c5981e07b79e29aa12fc32ff073d3ceb0a187ad1",
  "args": [],
  "numDeployments": 2,
  "solcInputHash": "78323490c39256cceed7c4600324c040",
  "bytecode": "0x608060405234801561001057600080fd5b5061300e806100206000396000f3fe6080604052600436106100f35760003560e01c8063a5def8b71161008a578063d9eb0fd111610059578063d9eb0fd11461027f578063de12c65a1461029f578063eb924472146102bf578063f8a7e791146102d257600080fd5b8063a5def8b71461020c578063b0ffc3421461022c578063bdfa11301461024c578063ca55d6e41461025f57600080fd5b806375b83e5e116100c657806375b83e5e1461017c5780637916692c1461019c5780637f4e4849146101c9578063898c2bd7146101de57600080fd5b80630b07a3d1146100f857806312065fe01461011a5780636608ef421461013c578063743790ed1461015c575b600080fd5b34801561010457600080fd5b506101186101133660046128c6565b6102f2565b005b34801561012657600080fd5b50475b6040519081526020015b60405180910390f35b34801561014857600080fd5b506101186101573660046128f6565b61034f565b34801561016857600080fd5b50610118610177366004612940565b6106ce565b34801561018857600080fd5b506101186101973660046128c6565b610783565b3480156101a857600080fd5b506101bc6101b73660046128c6565b6107ae565b604051610133919061296c565b3480156101d557600080fd5b50610129610895565b3480156101ea57600080fd5b506101fe6101f9366004612a7a565b6108c4565b604051610133929190612a96565b34801561021857600080fd5b50610129610227366004612a7a565b610900565b34801561023857600080fd5b50610118610247366004612aee565b610976565b61011861025a366004612bad565b610b3f565b34801561026b57600080fd5b5061011861027a366004612c19565b61110e565b34801561028b57600080fd5b5061011861029a366004612c3b565b6111f2565b3480156102ab57600080fd5b506101bc6102ba3660046128c6565b611233565b6101186102cd366004612c56565b6112b0565b3480156102de57600080fd5b506101186102ed366004612a7a565b6115f9565b6102fa6117fb565b6103038161189f565b600061030e82611997565b60058101805460ff1916600117905560405190915082907f12ba12d5905656d674e5e6eb43518e8037aa5c2d412275fed1d6c87b3579f8f490600090a25050565b6103576117fb565b6001600160a01b0386166103fe5760405162461bcd60e51b815260206004820152604160248201527f4d756c7469706173732d3e696e697469616c697a65446f6d61696e3a20596f7560448201527f206d7573742070726f766964652061207265676973747261722061646472657360648201527f7300000000000000000000000000000000000000000000000000000000000000608482015260a4015b60405180910390fd5b61040783611a07565b6104795760405162461bcd60e51b815260206004820152603860248201527f4d756c7469706173732d3e696e697469616c697a65446f6d61696e3a20446f6d60448201527f61696e206e616d652063616e6e6f7420626520656d707479000000000000000060648201526084016103f5565b60008381527f942042f0915323d42178db3492cec6b17698133c921389900ae2a4ec284adb0960205260409020541561051a5760405162461bcd60e51b815260206004820152603760248201527f4d756c7469706173732d3e696e697469616c697a65446f6d61696e3a20446f6d60448201527f61696e206e616d6520616c72656164792065786973747300000000000000000060648201526084016103f5565b6000806105278484611a23565b90925090506001821515146105ca5760405162461bcd60e51b815260206004820152604760248201527f4d756c7469706173732d3e696e697469616c697a65446f6d61696e3a2072656660448201527f6572726572526577617264202b20726566657272616c446973636f756e74206f60648201527f766572666c6f7700000000000000000000000000000000000000000000000000608482015260a4016103f5565b858111156106665760405162461bcd60e51b815260206004820152604760248201527f4d756c7469706173732d3e696e697469616c697a65446f6d61696e3a2072656660448201527f657272616c2076616c7565732061726520686967686572207468656e2066656560648201527f20697473656c6600000000000000000000000000000000000000000000000000608482015260a4016103f5565b610674888888888888611a4c565b6040805188815260208101869052908101849052859087906001600160a01b038b16907fbe3801c0181d8af90729c68d92bf7b5f04bd95932ab4bd4364d75bafe12a65389060600160405180910390a45050505050505050565b6106d66117fb565b6106df8261189f565b60006106ea83611997565b90506001600160a01b0382166107425760405162461bcd60e51b815260206004820152601c60248201527f6e6577207265676973747261722063616e6e6f74206265207a65726f0000000060448201526064016103f5565b60050180546001600160a01b03909216610100027fffffffffffffffffffffff0000000000000000000000000000000000000000ff90921691909117905550565b61078b6117fb565b6107948161189f565b600061079f82611997565b600501805460ff191690555050565b6040805161012081018252600080825260208201819052918101829052606081018290526080810182905260a0810182905260c0810182905260e0810182905261010081018290529061080083611997565b604080516101208101825282548152600183015460208201526002830154918101919091526003820154606082015260048201546080820152600582015460ff8116151560a08301526101008082046001600160a01b031660c0840152750100000000000000000000000000000000000000000090910462ffffff1660e0830152600690920154918101919091529392505050565b60006108bf7f942042f0915323d42178db3492cec6b17698133c921389900ae2a4ec284adb0a5490565b905090565b6040805160a08101825260008082526020820181905291810182905260608101829052608081018290526108f783611b3b565b91509150915091565b600080600061090e84611b3b565b90925090506001821515146109655760405162461bcd60e51b815260206004820152601f60248201527f6765744d6f6469667950726963652d3e75736572206e6f7420666f756e64200060448201526064016103f5565b61096e81611b6e565b949350505050565b61097e6117fb565b6109878161189f565b600061099282611997565b90506000806109a18786611a23565b9092509050600182151514610a445760405162461bcd60e51b815260206004820152604c60248201527f4d756c7469706173732d3e6368616e6765526566657272616c50726f6772616d60448201527f3a207265666572726572526577617264202b20726566657272616c446973636f60648201527f756e74206f766572666c6f770000000000000000000000000000000000000000608482015260a4016103f5565b6001830154811115610ae45760405162461bcd60e51b815260206004820152605060248201527f4d756c7469706173732d3e6368616e6765526566657272616c50726f6772616d60448201527f3a20726566657272616c2076616c75657320617265206869676865722074686560648201527f6e207468652066656520697473656c6600000000000000000000000000000000608482015260a4016103f5565b6003830187905560048301859055600283018690556040805188815260208101879052879186917fa9e253dabd6e5f02d60f00939674a88ef4de2ad412ea1dc78ce69a31a4216a94910160405180910390a350505050505050565b610b488561189f565b608084018590526000610b5a86611997565b600581015490915060ff16610bd75760405162461bcd60e51b815260206004820152603c60248201527f4d756c7469706173732d3e6d6f64696679557365724e616d653a204c69624d7560448201527f6c7469706173732e446f6d61696e206973206e6f74206163746976650000000060648201526084016103f5565b83610c4a5760405162461bcd60e51b815260206004820152602f60248201527f4d756c7469706173732d3e6d6f64696679557365724e616d653a204e616d652060448201527f63616e6e6f7420626520656d707479000000000000000000000000000000000060648201526084016103f5565b43821015610ce65760405162461bcd60e51b815260206004820152605760248201527f4d756c7469706173732d3e6d6f64696679557365724e616d653a205369676e6160448201527f7475726520646561646c696e65206d757374206265206772656174657220746860648201527f616e2063757272656e7420626c6f636b206e756d626572000000000000000000608482015260a4016103f5565b600080610cf287611b3b565b6020810180519089905291935091508190600184151514610d7b5760405162461bcd60e51b815260206004820152602b60248201527f7573657220646f6573206e6f742065786973742c20757365207265676973746560448201527f72282920696e737465616400000000000000000000000000000000000000000060648201526084016103f5565b60007f829c23f309973881020b4844a250746aaa001c672df3f7b11a665572e05517998360200151846040015185608001518a8860600151604051602001610df99695949392919095865260208601949094526040850192909252606084015260808301526bffffffffffffffffffffffff1660a082015260c00190565b6040516020818303038152906040529050610e2f81898860000160050160019054906101000a90046001600160a01b0316611bd9565b610ea15760405162461bcd60e51b815260206004820152603060248201527f4d756c7469706173732d3e6d6f64696679557365724e616d653a204e6f74206160448201527f2076616c6964207369676e61747572650000000000000000000000000000000060648201526084016103f5565b6000610eac84611b6e565b905080341015610f245760405162461bcd60e51b815260206004820152602d60248201527f4d756c7469706173732d3e6d6f64696679557365724e616d653a204e6f74206560448201527f6e6f756768207061796d656e740000000000000000000000000000000000000060648201526084016103f5565b6060850151604080870151600090815260088a0160205220546bffffffffffffffffffffffff908116911614610fc25760405162461bcd60e51b815260206004820152602860248201527f4d756c7469706173732d3e6d6f64696679557365724e616d653a20696e76616c60448201527f6964206e6f6e636500000000000000000000000000000000000000000000000060648201526084016103f5565b60008a8152600a88016020526040902054156110465760405162461bcd60e51b815260206004820152603560248201527f4f76654d756c7469706173732d3e6d6f64696679557365724e616d653a206e6560448201527f77206e616d6520616c726561647920657869737473000000000000000000000060648201526084016103f5565b6110508785611c04565b6040808501516000908152600b89016020908152828220548252600a8a01905281812055518c9084906110d09087906001600160a01b03825116815260208201516020820152604082015160408201526bffffffffffffffffffffffff606083015116606082015260808201516080820152600060a08201905092915050565b604051908190038120907f02d9a5627e4bd1785c150ee39c4c50a61974b9064d5ce32fe39cf6f6053efcae90600090a4505050505050505050505050565b6111166117fb565b61111f8261189f565b600061112a83611997565b6003810154600482015491925090836111438383612d63565b11156111b75760405162461bcd60e51b815260206004820152603c60248201527f4d756c7469706173732d3e6368616e67654665653a20726566657272616c207260448201527f65776172647320776f756c64206265636f6d6520746f6f20686967680000000060648201526084016103f5565b60018301849055604051849086907f850b5f3a1167567889ff23ccba717cf63dc8e533b3ce66ebe7f9036ea50d397490600090a35050505050565b6111fa6117fb565b6040516001600160a01b038216904780156108fc02916000818181858888f1935050505015801561122f573d6000803e3d6000fd5b5050565b6040805161012081018252600080825260208201819052918101829052606081018290526080810182905260a0810182905260c0810182905260e081018290526101008101829052906108008360009081527f942042f0915323d42178db3492cec6b17698133c921389900ae2a4ec284adb086020526040902090565b6112b98561189f565b6112c586868686611ce9565b60006112d086611997565b90506000806112de85611b3b565b9150915060006112ed84612209565b6113a257826112fd576000611303565b60038401545b9050600061132885600001600101548561131e576000612224565b6004870154612224565b9050803410156113a05760405162461bcd60e51b815260206004820152603060248201527f4d756c7469706173732d3e72656769737465723a205061796d656e742076616c60448201527f7565206973206e6f7420656e6f7567680000000000000000000000000000000060648201526084016103f5565b505b6113ac8a85612230565b83546040517f21c225a8ca89ef7aa4ecf2b902d3266d4f7cfa1c0b8b6747df607375bf7638c5906113de908d90612d7b565b60405180910390a282156115ed578151604080517f216da2d1b8943b28c3c65d1a24b58fdf6dfd051d8f0667966ebf5d8ae37ceb7660208201526001600160a01b03909216828201528051808303820181526060909201905282516114469082908890611bd9565b6114b85760405162461bcd60e51b815260206004820152602f60248201527f4d756c7469706173732d3e72656769737465723a20526566657272616c20636f60448201527f6465206973206e6f742076616c6964000000000000000000000000000000000060648201526084016103f5565b82516040516001600160a01b039091169083156108fc029084906000818181858888f193505050506115525760405162461bcd60e51b815260206004820152603360248201527f4d756c7469706173732d3e72656769737465723a204661696c656420746f207360448201527f656e6420726566657272616c207265776172640000000000000000000000000060648201526084016103f5565b8a5183516001600160a01b03908116911614156115b15760405162461bcd60e51b815260206004820152601560248201527f43616e6e6f7420726566657220796f757273656c66000000000000000000000060448201526064016103f5565b897f3afc2c4d6013c0d5dff05b266fa6eed468f77af1096838b66c1b92f34d0e904e848d6040516115e3929190612dcb565b60405180910390a2505b50505050505050505050565b6116016117fb565b805161160c9061189f565b600061161b8260000151611997565b60006080840181905290915080611631846108c4565b90925090506001821515146116ae5760405162461bcd60e51b815260206004820152602860248201527f4d756c7469706173732d3e64656c6574654e616d653a206e616d65206e6f742060448201527f7265736f6c76656400000000000000000000000000000000000000000000000060648201526084016103f5565b80516001600160a01b0316600090815260098401602090815260408083208390558084018051845260078701835281842080547fffffffffffffffffffffffff000000000000000000000000000000000000000016905580518452600b87018352818420849055828501518452600a870183528184208490555183526008860190915281208054600192906117529084906bffffffffffffffffffffffff16612e69565b92506101000a8154816bffffffffffffffffffffffff02191690836bffffffffffffffffffffffff16021790555082600001600601600081548092919061179890612e99565b9190505550806040015181600001516001600160a01b031684600001600001547fee56310501c49a670570d1edf7adfbe3fb90b4ae92c631470d3d4b059b7ab7a784602001516040516117ed91815260200190565b60405180910390a450505050565b7fc8fcad8db84d3cc18b4c41d551ea0ee66dd599cde068d998e57d5e09332c131c600401546001600160a01b0316331461189d5760405162461bcd60e51b815260206004820152602260248201527f4c69624469616d6f6e643a204d75737420626520636f6e7472616374206f776e60448201527f657200000000000000000000000000000000000000000000000000000000000060648201526084016103f5565b565b6118a881611a07565b61191a5760405162461bcd60e51b815260206004820152603760248201527f6163746976617465446f6d61696e2d3e506c656173652073706563696679204c60448201527f69624d756c7469706173732e446f6d61696e206e616d6500000000000000000060648201526084016103f5565b60008181527f942042f0915323d42178db3492cec6b17698133c921389900ae2a4ec284adb0960205260409020546119945760405162461bcd60e51b815260206004820152601560248201527f446f6d61696e20646f6573206e6f74206578697374000000000000000000000060448201526064016103f5565b50565b60007f942042f0915323d42178db3492cec6b17698133c921389900ae2a4ec284adb0880826119f18560009081527f942042f0915323d42178db3492cec6b17698133c921389900ae2a4ec284adb09602052604090205490565b8152602001908152602001600020915050919050565b600081611a1657506000919050565b506001919050565b919050565b60008083830184811015611a3e576000809250925050611a45565b6001925090505b9250929050565b7f942042f0915323d42178db3492cec6b17698133c921389900ae2a4ec284adb0a547f942042f0915323d42178db3492cec6b17698133c921389900ae2a4ec284adb0890600090611a9e906001612d63565b60008181526020849052604081206005810180547fffffffffffffffffffffff0000000000000000000000000000000000000000ff166101006001600160a01b038e160217905560028082018b9055600182018a9055888255600382018890556004820187905585018054939450909291611b1883612eb0565b909155505050600094855260019091016020526040909320929092555050505050565b6040805160a08101825260008082526020820181905291810182905260608101829052608081018290526108f78361225b565b600080611b7e8360800151611997565b90506000611b948260000160010154600a61242d565b6060850151909150600090611bb7906bffffffffffffffffffffffff1680612439565b9050611bd0611bc68383612439565b6001850154612445565b95945050505050565b600080611bec8580519060200120612451565b9050611bf98382866124ba565b9150505b9392505050565b6040818101805183516001600160a01b0390811660009081526009870160209081528582209390935585518451825260078801845285822080547fffffffffffffffffffffffff0000000000000000000000000000000000000000169190931617909155818501805184518352600b8801845285832055835190518252600a870183528482205591518252600885019052908120805460019290611cb79084906bffffffffffffffffffffffff16612e69565b92506101000a8154816bffffffffffffffffffffffff02191690836bffffffffffffffffffffffff1602179055505050565b6040805160a0808201835260008083526020808401829052838501829052606080850183905260809485018390528551938401865282845283820183815284870184815291850184815295850193909352948901519384905287835288015190935286516001600160a01b0316909252611d6290611a07565b611dd45760405162461bcd60e51b815260206004820152603260248201527f5f76616c69646174654e616d6551756572792d3e206e6577207265636f72642060448201527f69642063616e6e6f7420626520656d707479000000000000000000000000000060648201526084016103f5565b8051611ddf90611a07565b611e515760405162461bcd60e51b815260206004820152603660248201527f5f76616c69646174654e616d6551756572792d3e206e6577207265636f72642060448201527f646f6d61696e2063616e6e6f7420626520656d7074790000000000000000000060648201526084016103f5565b60208101516001600160a01b0316611ed15760405162461bcd60e51b815260206004820152603660248201527f5f76616c69646174654e616d6551756572792d3e206e65772065636f7264206160448201527f6464726573732063616e6e6f7420626520656d7074790000000000000000000060648201526084016103f5565b6000611edc82611b3b565b5090508015611f535760405162461bcd60e51b815260206004820152602b60248201527f5573657220616c726561647920726567697374657265642c20757365206d6f6460448201527f69667920696e737465616400000000000000000000000000000000000000000060648201526084016103f5565b6000611f628360000151611997565b600581015490915060ff16611fdf5760405162461bcd60e51b815260206004820152602960248201527f4d756c7469706173732d3e72656769737465723a20646f6d61696e206973206e60448201527f6f7420616374697665000000000000000000000000000000000000000000000060648201526084016103f5565b4384116120545760405162461bcd60e51b815260206004820152603f60248201527f4d756c7469706173732d3e72656769737465723a20446561646c696e6520697360448201527f206c657373207468616e2063757272656e7420626c6f636b206e756d6265720060648201526084016103f5565b604080840151606080860151865184517f829c23f309973881020b4844a250746aaa001c672df3f7b11a665572e055179960208201529485019390935290830152608082015260a08101859052600060c082018190529060e00160405160208183030381529060405290506120e481878460000160050160019054906101000a90046001600160a01b0316611bd9565b6121565760405162461bcd60e51b815260206004820152603560248201527f4d756c7469706173732d3e72656769737465723a20526567697374726172207360448201527f69676e6174757265206973206e6f742076616c6964000000000000000000000060648201526084016103f5565b50600061216284611b3b565b50905080156121ff5760405162461bcd60e51b815260206004820152604960248201527f4d756c7469706173732d3e72656769737465723a206170706c6963616e74206960448201527f7320616c726561647920726567697374657265642c20757365206d6f6469667960648201527f20696e7374726561640000000000000000000000000000000000000000000000608482015260a4016103f5565b5050505050505050565b6006810154600282015460009110611a165760005b92915050565b6000611bfd8284612ecb565b61223a8183611c04565b60018160000160060160008282546122529190612d63565b90915550505050565b6040805160a081018252600080825260208201819052918101829052606081018290526080810182905260208301516001600160a01b03161580156122a257506060830151155b80156122b057506040830151155b156122e85750506040805160a08101825260008082526020820181905291810182905260608101829052608081018290529092909150565b825160009081527f942042f0915323d42178db3492cec6b17698133c921389900ae2a4ec284adb09602081815260408084205484527f942042f0915323d42178db3492cec6b17698133c921389900ae2a4ec284adb08918290528320608087015191939092909184918391829015612364578960800151612367565b89515b815260200190815260200160002054815260200190815260200160002090506000806001600160a01b031687602001516001600160a01b0316146123b057506020860151612416565b6060870151156123df5750606086015160009081526007830160205260409020546001600160a01b0316612416565b60408701511561241657506040808701516000908152600a8401602090815282822054825260078501905220546001600160a01b03165b6124208183612642565b9550955050505050915091565b6000611bfd8284612ee2565b6000611bfd8284612f04565b6000611bfd8284612d63565b600061221e61245e6126f2565b836040517f19010000000000000000000000000000000000000000000000000000000000006020820152602281018390526042810182905260009060620160405160208183030381529060405280519060200120905092915050565b60008060006124c985856127bf565b909250905060008160048111156124e2576124e2612f23565b1480156125005750856001600160a01b0316826001600160a01b0316145b1561251057600192505050611bfd565b600080876001600160a01b0316631626ba7e60e01b8888604051602401612538929190612f69565b60408051601f198184030181529181526020820180517bffffffffffffffffffffffffffffffffffffffffffffffffffffffff167fffffffff000000000000000000000000000000000000000000000000000000009094169390931790925290516125a39190612fa3565b600060405180830381855afa9150503d80600081146125de576040519150601f19603f3d011682016040523d82523d6000602084013e6125e3565b606091505b50915091508180156125f6575080516020145b8015612636575080517f1626ba7e00000000000000000000000000000000000000000000000000000000906126349083016020908101908401612fbf565b145b98975050505050505050565b6040805160a080820183526000808352602080840182905283850182905260608085018390526080808601849052865194850187528385528483018481528588018581529286018581529186018581526001600160a01b038b1680875260098b018652898720548086528752600b8b018652898720549092528351865260088a01909452968420546bffffffffffffffffffffffff169052948352855490529251611a3e57600092509050611a45565b7fe5b6a7afa77789577f2802f0da58895f660e5798c5c11b2ea18b0a53bd65d3a9546000907fe5b6a7afa77789577f2802f0da58895f660e5798c5c11b2ea18b0a53bd65d3a7906001600160a01b0316301480156127535750806001015446145b1561275e5754919050565b6127b98160050154826003015483600401546040805160208101859052908101839052606081018290524660808201523060a082015260009060c0016040516020818303038152906040528051906020012090509392505050565b91505090565b6000808251604114156127f65760208301516040840151606085015160001a6127ea87828585612802565b94509450505050611a45565b50600090506002611a45565b6000807f7fffffffffffffffffffffffffffffff5d576e7357a4501ddfe92f46681b20a083111561283957506000905060036128bd565b6040805160008082526020820180845289905260ff881692820192909252606081018690526080810185905260019060a0016020604051602081039080840390855afa15801561288d573d6000803e3d6000fd5b5050604051601f1901519150506001600160a01b0381166128b6576000600192509250506128bd565b9150600090505b94509492505050565b6000602082840312156128d857600080fd5b5035919050565b80356001600160a01b0381168114611a1e57600080fd5b60008060008060008060c0878903121561290f57600080fd5b612918876128df565b9860208801359850604088013597606081013597506080810135965060a00135945092505050565b6000806040838503121561295357600080fd5b82359150612963602084016128df565b90509250929050565b600061012082019050825182526020830151602083015260408301516040830152606083015160608301526080830151608083015260a0830151151560a08301526001600160a01b0360c08401511660c083015260e08301516129d660e084018262ffffff169052565b5061010092830151919092015290565b634e487b7160e01b600052604160045260246000fd5b60405160a0810167ffffffffffffffff81118282101715612a1f57612a1f6129e6565b60405290565b600060a08284031215612a3757600080fd5b612a3f6129fc565b905081358152612a51602083016128df565b602082015260408201356040820152606082013560608201526080820135608082015292915050565b600060a08284031215612a8c57600080fd5b611bfd8383612a25565b821515815260c08101611bfd60208301846001600160a01b03815116825260208101516020830152604081015160408301526bffffffffffffffffffffffff6060820151166060830152608081015160808301525050565b60008060008060808587031215612b0457600080fd5b5050823594602084013594506040840135936060013592509050565b600082601f830112612b3157600080fd5b813567ffffffffffffffff80821115612b4c57612b4c6129e6565b604051601f8301601f19908116603f01168101908282118183101715612b7457612b746129e6565b81604052838152866020858801011115612b8d57600080fd5b836020870160208301376000602085830101528094505050505092915050565b60008060008060006101208688031215612bc657600080fd5b85359450612bd78760208801612a25565b935060c0860135925060e086013567ffffffffffffffff811115612bfa57600080fd5b612c0688828901612b20565b9598949750929561010001359392505050565b60008060408385031215612c2c57600080fd5b50508035926020909101359150565b600060208284031215612c4d57600080fd5b611bfd826128df565b6000806000806000808688036101c0811215612c7157600080fd5b60a0811215612c7f57600080fd5b50612c886129fc565b612c91886128df565b8152602088013560208201526040880135604082015260608801356bffffffffffffffffffffffff81168114612cc657600080fd5b606082015260808881013590820152955060a0870135945060c087013567ffffffffffffffff80821115612cf957600080fd5b612d058a838b01612b20565b955060e08901359450612d1c8a6101008b01612a25565b93506101a0890135915080821115612d3357600080fd5b50612d4089828a01612b20565b9150509295509295509295565b634e487b7160e01b600052601160045260246000fd5b60008219821115612d7657612d76612d4d565b500190565b60a0810161221e82846001600160a01b03815116825260208101516020830152604081015160408301526bffffffffffffffffffffffff6060820151166060830152608081015160808301525050565b6101408101612e1c82856001600160a01b03815116825260208101516020830152604081015160408301526bffffffffffffffffffffffff6060820151166060830152608081015160808301525050565b82516001600160a01b031660a0830152602083015160c0830152604083015160e083015260608301516bffffffffffffffffffffffff166101008301526080830151610120830152611bfd565b60006bffffffffffffffffffffffff808316818516808303821115612e9057612e90612d4d565b01949350505050565b600081612ea857612ea8612d4d565b506000190190565b6000600019821415612ec457612ec4612d4d565b5060010190565b600082821015612edd57612edd612d4d565b500390565b600082612eff57634e487b7160e01b600052601260045260246000fd5b500490565b6000816000190483118215151615612f1e57612f1e612d4d565b500290565b634e487b7160e01b600052602160045260246000fd5b60005b83811015612f54578181015183820152602001612f3c565b83811115612f63576000848401525b50505050565b8281526040602082015260008251806040840152612f8e816060850160208701612f39565b601f01601f1916919091016060019392505050565b60008251612fb5818460208701612f39565b9190910192915050565b600060208284031215612fd157600080fd5b505191905056fea26469706673582212208e2acc46daeb9098fa77b04f286603c68bbbace8f22084d84f0847f7fbbe807d64736f6c63430008080033",
  "devdoc": {
    "kind": "dev",
    "methods": {
      "activateDomain(bytes32)": {
        "details": "Activates LibMultipass.Domain name Requirements:  msg.sender is Owner  Emits an {DomainActivated} event."
      },
      "changeFee(bytes32,uint256)": {
        "details": "Changes registrar address Requirements:  msg.sender is Owner  Emits an {DomainFeeChanged} event."
      },
      "changeRegistrar(bytes32,address)": {
        "details": "Changes registrar address Requirements:  msg.sender is Owner  Emits an {RegistrarChangeRequested} event."
      },
      "deactivateDomain(bytes32)": {
        "details": "Deactivates LibMultipass.Domain name Deactivated LibMultipass.Domain cannot mutate names and will return zeros Requirements:  msg.sender is Owner OR registrar  Emits an {DomainDeactivated} event."
      },
      "deleteName((bytes32,address,bytes32,bytes32,bytes32))": {
        "details": "deletes name Requirements:  msg.sender is Owner  Emits an {DomainTTLChangeRequested} event."
      },
      "getBalance()": {
        "details": "returns balance of this contract"
      },
      "getContractState()": {
        "details": "returns contract state variables",
        "returns": {
          "_0": "(s_numDomains)"
        }
      },
      "getDomainState(bytes32)": {
        "details": "returns LibMultipass.Domain state variables",
        "params": {
          "domainName": "name of the LibMultipass.Domain"
        },
        "returns": {
          "_0": "(name, fee, freeRegistrationsNumber, referrerReward, referralDiscount, isActive, registrar, ttl, registerSize)"
        }
      },
      "initializeDomain(address,uint256,uint256,bytes32,uint256,uint256)": {
        "details": "Initializes new LibMultipass.Domain and configures it's parameters Requirements:  registrar is not zero  domainName is not empty  domainIndex is either zero(auto assign) or can be one of preoccupied LibMultipass.Domain names  domainName does not exist yet  onlyOwner  referrerReward+referralDiscount cannot be larger than fee",
        "params": {
          "domainName": "name of LibMultipass.Domain",
          "fee": "fee in base currency of network",
          "freeRegistrationsNumber": "number of registrations free of fee",
          "referralDiscount": "referral discount in base currency of network  Emits an {InitializedDomain} event.",
          "referrerReward": "referral fee share in base currency of network",
          "registrar": "address of registrar"
        }
      },
      "modifyUserName(bytes32,(bytes32,address,bytes32,bytes32,bytes32),bytes32,bytes,uint256)": {
        "details": "modifies exsisting LibMultipass.Record Requirements: resolveRecord for given arguments should return valid LibMultipass.Record LibMultipass.Domain must be active newAddress and newName should be set and be unique in current LibMultipass.Domain",
        "params": {
          "domainName": "LibMultipass.Domain",
          "newName": "new name  Emits an {Modified} event."
        }
      },
      "register((address,bytes32,bytes32,uint96,bytes32),bytes32,bytes,uint256,(bytes32,address,bytes32,bytes32,bytes32),bytes)": {
        "details": "registers new name under LibMultipass.Domain Requirements:  all arguments must be set  domainName must be active resolveRecord for given arguments should return no LibMultipass.Record  Emits an {registered} event."
      },
      "resolveRecord((bytes32,address,bytes32,bytes32,bytes32))": {
        "details": "resolves LibMultipass.Record of name query in to status and identity "
      },
      "withrawFunds(address)": {
        "details": "Withraws funds stored in smart contract Requirements:  onlyOwner  Emits an {fundsWithdawn} event."
      }
    },
    "version": 1
  },
  "userdoc": {
    "kind": "user",
    "methods": {},
    "version": 1
  },
  "storageLayout": {
    "storage": [],
    "types": null
  }
}