{
  "address": "0x8a2A42a0ABB1B8dE7c23a962B0ef5143E19394C6",
  "abi": [
    {
      "inputs": [
        {
          "internalType": "string",
          "name": "uri_",
          "type": "string"
        },
        {
          "internalType": "address",
          "name": "owner",
          "type": "address"
        }
      ],
      "stateMutability": "nonpayable",
      "type": "constructor"
    },
    {
      "anonymous": false,
      "inputs": [
        {
          "indexed": true,
          "internalType": "address",
          "name": "account",
          "type": "address"
        },
        {
          "indexed": true,
          "internalType": "address",
          "name": "operator",
          "type": "address"
        },
        {
          "indexed": false,
          "internalType": "bool",
          "name": "approved",
          "type": "bool"
        }
      ],
      "name": "ApprovalForAll",
      "type": "event"
    },
    {
      "anonymous": false,
      "inputs": [
        {
          "indexed": true,
          "internalType": "address",
          "name": "previousOwner",
          "type": "address"
        },
        {
          "indexed": true,
          "internalType": "address",
          "name": "newOwner",
          "type": "address"
        }
      ],
      "name": "OwnershipTransferred",
      "type": "event"
    },
    {
      "anonymous": false,
      "inputs": [
        {
          "indexed": true,
          "internalType": "address",
          "name": "operator",
          "type": "address"
        },
        {
          "indexed": true,
          "internalType": "address",
          "name": "from",
          "type": "address"
        },
        {
          "indexed": true,
          "internalType": "address",
          "name": "to",
          "type": "address"
        },
        {
          "indexed": false,
          "internalType": "uint256[]",
          "name": "ids",
          "type": "uint256[]"
        },
        {
          "indexed": false,
          "internalType": "uint256[]",
          "name": "values",
          "type": "uint256[]"
        }
      ],
      "name": "TransferBatch",
      "type": "event"
    },
    {
      "anonymous": false,
      "inputs": [
        {
          "indexed": true,
          "internalType": "address",
          "name": "operator",
          "type": "address"
        },
        {
          "indexed": true,
          "internalType": "address",
          "name": "from",
          "type": "address"
        },
        {
          "indexed": true,
          "internalType": "address",
          "name": "to",
          "type": "address"
        },
        {
          "indexed": false,
          "internalType": "uint256",
          "name": "id",
          "type": "uint256"
        },
        {
          "indexed": false,
          "internalType": "uint256",
          "name": "value",
          "type": "uint256"
        }
      ],
      "name": "TransferSingle",
      "type": "event"
    },
    {
      "anonymous": false,
      "inputs": [
        {
          "indexed": false,
          "internalType": "string",
          "name": "value",
          "type": "string"
        },
        {
          "indexed": true,
          "internalType": "uint256",
          "name": "id",
          "type": "uint256"
        }
      ],
      "name": "URI",
      "type": "event"
    },
    {
      "inputs": [
        {
          "internalType": "address",
          "name": "account",
          "type": "address"
        },
        {
          "internalType": "uint256",
          "name": "id",
          "type": "uint256"
        }
      ],
      "name": "balanceOf",
      "outputs": [
        {
          "internalType": "uint256",
          "name": "",
          "type": "uint256"
        }
      ],
      "stateMutability": "view",
      "type": "function"
    },
    {
      "inputs": [
        {
          "internalType": "address[]",
          "name": "accounts",
          "type": "address[]"
        },
        {
          "internalType": "uint256[]",
          "name": "ids",
          "type": "uint256[]"
        }
      ],
      "name": "balanceOfBatch",
      "outputs": [
        {
          "internalType": "uint256[]",
          "name": "",
          "type": "uint256[]"
        }
      ],
      "stateMutability": "view",
      "type": "function"
    },
    {
      "inputs": [
        {
          "internalType": "address",
          "name": "to",
          "type": "address"
        },
        {
          "internalType": "uint256[]",
          "name": "ids",
          "type": "uint256[]"
        },
        {
          "internalType": "uint256[]",
          "name": "amounts",
          "type": "uint256[]"
        },
        {
          "internalType": "bytes",
          "name": "data",
          "type": "bytes"
        }
      ],
      "name": "batchMint",
      "outputs": [],
      "stateMutability": "nonpayable",
      "type": "function"
    },
    {
      "inputs": [
        {
          "internalType": "address",
          "name": "account",
          "type": "address"
        },
        {
          "internalType": "address",
          "name": "operator",
          "type": "address"
        }
      ],
      "name": "isApprovedForAll",
      "outputs": [
        {
          "internalType": "bool",
          "name": "",
          "type": "bool"
        }
      ],
      "stateMutability": "view",
      "type": "function"
    },
    {
      "inputs": [
        {
          "internalType": "address",
          "name": "to",
          "type": "address"
        },
        {
          "internalType": "uint256",
          "name": "id",
          "type": "uint256"
        },
        {
          "internalType": "bytes",
          "name": "data",
          "type": "bytes"
        }
      ],
      "name": "levelUp",
      "outputs": [],
      "stateMutability": "nonpayable",
      "type": "function"
    },
    {
      "inputs": [
        {
          "internalType": "address",
          "name": "to",
          "type": "address"
        },
        {
          "internalType": "uint256",
          "name": "amount",
          "type": "uint256"
        },
        {
          "internalType": "uint256",
          "name": "poolId",
          "type": "uint256"
        },
        {
          "internalType": "bytes",
          "name": "data",
          "type": "bytes"
        }
      ],
      "name": "mint",
      "outputs": [],
      "stateMutability": "nonpayable",
      "type": "function"
    },
    {
      "inputs": [],
      "name": "owner",
      "outputs": [
        {
          "internalType": "address",
          "name": "",
          "type": "address"
        }
      ],
      "stateMutability": "view",
      "type": "function"
    },
    {
      "inputs": [],
      "name": "renounceOwnership",
      "outputs": [],
      "stateMutability": "nonpayable",
      "type": "function"
    },
    {
      "inputs": [
        {
          "internalType": "address",
          "name": "from",
          "type": "address"
        },
        {
          "internalType": "address",
          "name": "to",
          "type": "address"
        },
        {
          "internalType": "uint256[]",
          "name": "ids",
          "type": "uint256[]"
        },
        {
          "internalType": "uint256[]",
          "name": "amounts",
          "type": "uint256[]"
        },
        {
          "internalType": "bytes",
          "name": "data",
          "type": "bytes"
        }
      ],
      "name": "safeBatchTransferFrom",
      "outputs": [],
      "stateMutability": "nonpayable",
      "type": "function"
    },
    {
      "inputs": [
        {
          "internalType": "address",
          "name": "from",
          "type": "address"
        },
        {
          "internalType": "address",
          "name": "to",
          "type": "address"
        },
        {
          "internalType": "uint256",
          "name": "id",
          "type": "uint256"
        },
        {
          "internalType": "uint256",
          "name": "amount",
          "type": "uint256"
        },
        {
          "internalType": "bytes",
          "name": "data",
          "type": "bytes"
        }
      ],
      "name": "safeTransferFrom",
      "outputs": [],
      "stateMutability": "nonpayable",
      "type": "function"
    },
    {
      "inputs": [
        {
          "internalType": "address",
          "name": "operator",
          "type": "address"
        },
        {
          "internalType": "bool",
          "name": "approved",
          "type": "bool"
        }
      ],
      "name": "setApprovalForAll",
      "outputs": [],
      "stateMutability": "nonpayable",
      "type": "function"
    },
    {
      "inputs": [
        {
          "internalType": "string",
          "name": "uri",
          "type": "string"
        }
      ],
      "name": "setURI",
      "outputs": [],
      "stateMutability": "nonpayable",
      "type": "function"
    },
    {
      "inputs": [
        {
          "internalType": "bytes4",
          "name": "interfaceId",
          "type": "bytes4"
        }
      ],
      "name": "supportsInterface",
      "outputs": [
        {
          "internalType": "bool",
          "name": "",
          "type": "bool"
        }
      ],
      "stateMutability": "view",
      "type": "function"
    },
    {
      "inputs": [
        {
          "internalType": "address",
          "name": "newOwner",
          "type": "address"
        }
      ],
      "name": "transferOwnership",
      "outputs": [],
      "stateMutability": "nonpayable",
      "type": "function"
    },
    {
      "inputs": [
        {
          "internalType": "uint256",
          "name": "",
          "type": "uint256"
        }
      ],
      "name": "uri",
      "outputs": [
        {
          "internalType": "string",
          "name": "",
          "type": "string"
        }
      ],
      "stateMutability": "view",
      "type": "function"
    }
  ],
  "transactionHash": "0x1553ed21f06d343f12d752c2e96d6468b06081831cd65849dff85fe38c095485",
  "args": [
    "https://peersky.infura-ipfs.io/ipfs/Qmam3ryLCZCTaAN7qTQrNiXwgbiBFyQypXkWcrjPnsCPHQ",
    "0xCA618ea6Adb914B694E2acF1d77fe92894fbfA30"
  ],
  "numDeployments": 1,
  "solcInputHash": "33610d0d9b6c0a83c9fb86f667a71132",
  "bytecode": "0x60806040523480156200001157600080fd5b50604051620027a8380380620027a88339810160408190526200003491620002e7565b816200004081620000c6565b506200004c33620000df565b6001600160a01b038116620000b35760405162461bcd60e51b815260206004820152602260248201527f6d7573742073706563696679206f776e6572206f662074686520636f6e74726160448201526118dd60f21b60648201526084015b60405180910390fd5b620000be8162000131565b505062000415565b8051620000db9060029060208401906200020e565b5050565b600380546001600160a01b038381166001600160a01b0319831681179093556040519116919082907f8be0079c531659141344cd1fd0a4f28419497f9722a3daafe3b4186f6b6457e090600090a35050565b6200013b620001b0565b6001600160a01b038116620001a25760405162461bcd60e51b815260206004820152602660248201527f4f776e61626c653a206e6577206f776e657220697320746865207a65726f206160448201526564647265737360d01b6064820152608401620000aa565b620001ad81620000df565b50565b6003546001600160a01b031633146200020c5760405162461bcd60e51b815260206004820181905260248201527f4f776e61626c653a2063616c6c6572206973206e6f7420746865206f776e65726044820152606401620000aa565b565b8280546200021c90620003d8565b90600052602060002090601f0160209004810192826200024057600085556200028b565b82601f106200025b57805160ff19168380011785556200028b565b828001600101855582156200028b579182015b828111156200028b5782518255916020019190600101906200026e565b50620002999291506200029d565b5090565b5b808211156200029957600081556001016200029e565b634e487b7160e01b600052604160045260246000fd5b80516001600160a01b0381168114620002e257600080fd5b919050565b60008060408385031215620002fb57600080fd5b82516001600160401b03808211156200031357600080fd5b818501915085601f8301126200032857600080fd5b8151818111156200033d576200033d620002b4565b604051601f8201601f19908116603f01168101908382118183101715620003685762000368620002b4565b816040528281526020935088848487010111156200038557600080fd5b600091505b82821015620003a957848201840151818301850152908301906200038a565b82821115620003bb5760008484830101525b9550620003cd915050858201620002ca565b925050509250929050565b600181811c90821680620003ed57607f821691505b602082108114156200040f57634e487b7160e01b600052602260045260246000fd5b50919050565b61238380620004256000396000f3fe608060405234801561001057600080fd5b50600436106100f45760003560e01c8063715018a611610097578063b48ab8b611610066578063b48ab8b614610206578063e985e9c514610219578063f242432a14610255578063f2fde38b1461026857600080fd5b8063715018a6146101bd578063731133e9146101c55780638da5cb5b146101d8578063a22cb465146101f357600080fd5b80630dbaf77f116100d35780630dbaf77f146101575780630e89341c1461016a5780632eb2c2d61461018a5780634e1273f41461019d57600080fd5b8062fdd58e146100f957806301ffc9a71461011f57806302fe530514610142575b600080fd5b61010c610107366004611a52565b61027b565b6040519081526020015b60405180910390f35b61013261012d366004611aaa565b610324565b6040519015158152602001610116565b610155610150366004611b6f565b610409565b005b610155610165366004611be0565b61041d565b61017d610178366004611c37565b61044d565b6040516101169190611c9d565b610155610198366004611d45565b6104e1565b6101b06101ab366004611def565b610583565b6040516101169190611ef5565b6101556106c1565b6101556101d3366004611f08565b6106d5565b6003546040516001600160a01b039091168152602001610116565b610155610201366004611f69565b610823565b610155610214366004611fa5565b610832565b610132610227366004612032565b6001600160a01b03918216600090815260016020908152604080832093909416825291909152205460ff1690565b610155610263366004612065565b61097c565b6101556102763660046120ca565b610a17565b60006001600160a01b0383166102fe5760405162461bcd60e51b815260206004820152602a60248201527f455243313135353a2061646472657373207a65726f206973206e6f742061207660448201527f616c6964206f776e65720000000000000000000000000000000000000000000060648201526084015b60405180910390fd5b506000908152602081815260408083206001600160a01b03949094168352929052205490565b60007fffffffff0000000000000000000000000000000000000000000000000000000082167fd9b67a260000000000000000000000000000000000000000000000000000000014806103b757507fffffffff0000000000000000000000000000000000000000000000000000000082167f0e89341c00000000000000000000000000000000000000000000000000000000145b8061040357507f01ffc9a7000000000000000000000000000000000000000000000000000000007fffffffff000000000000000000000000000000000000000000000000000000008316145b92915050565b610411610aa4565b61041a81610afe565b50565b610425610aa4565b61043183836001610b11565b610448836104408460016120fb565b600184610cc5565b505050565b60606002805461045c90612113565b80601f016020809104026020016040519081016040528092919081815260200182805461048890612113565b80156104d55780601f106104aa576101008083540402835291602001916104d5565b820191906000526020600020905b8154815290600101906020018083116104b857829003601f168201915b50505050509050919050565b6001600160a01b0385163314806104fd57506104fd8533610227565b61056f5760405162461bcd60e51b815260206004820152602e60248201527f455243313135353a2063616c6c6572206973206e6f7420746f6b656e206f776e60448201527f6572206f7220617070726f76656400000000000000000000000000000000000060648201526084016102f5565b61057c8585858585610dec565b5050505050565b606081518351146105fc5760405162461bcd60e51b815260206004820152602960248201527f455243313135353a206163636f756e747320616e6420696473206c656e67746860448201527f206d69736d61746368000000000000000000000000000000000000000000000060648201526084016102f5565b6000835167ffffffffffffffff81111561061857610618611ace565b604051908082528060200260200182016040528015610641578160200160208202803683370190505b50905060005b84518110156106b95761068c8582815181106106655761066561214e565b602002602001015185838151811061067f5761067f61214e565b602002602001015161027b565b82828151811061069e5761069e61214e565b60209081029190910101526106b281612164565b9050610647565b509392505050565b6106c9610aa4565b6106d3600061108a565b565b6106dd610aa4565b6001600160a01b0384166107425760405162461bcd60e51b815260206004820152602660248201527f52616e6b546f6b656e2d3e6d696e743a2041646472657373206e6f742073706560448201526518da599a595960d21b60648201526084016102f5565b826107b55760405162461bcd60e51b815260206004820152602560248201527f52616e6b546f6b656e2d3e6d696e743a20616d6f756e74206e6f74207370656360448201527f696669656400000000000000000000000000000000000000000000000000000060648201526084016102f5565b816108115760405162461bcd60e51b815260206004820152602660248201527f52616e6b546f6b656e2d3e6d696e743a20706f6f6c206964206e6f742073706560448201526518da599a595960d21b60648201526084016102f5565b61081d84838584610cc5565b50505050565b61082e3383836110f4565b5050565b61083a610aa4565b6001600160a01b03841661089f5760405162461bcd60e51b815260206004820152602660248201527f52616e6b546f6b656e2d3e6d696e743a2041646472657373206e6f742073706560448201526518da599a595960d21b60648201526084016102f5565b81516109135760405162461bcd60e51b815260206004820152602560248201527f52616e6b546f6b656e2d3e6d696e743a20616d6f756e74206e6f74207370656360448201527f696669656400000000000000000000000000000000000000000000000000000060648201526084016102f5565b82516109705760405162461bcd60e51b815260206004820152602660248201527f52616e6b546f6b656e2d3e6d696e743a20706f6f6c206964206e6f742073706560448201526518da599a595960d21b60648201526084016102f5565b61081d84848484611207565b6001600160a01b03851633148061099857506109988533610227565b610a0a5760405162461bcd60e51b815260206004820152602e60248201527f455243313135353a2063616c6c6572206973206e6f7420746f6b656e206f776e60448201527f6572206f7220617070726f76656400000000000000000000000000000000000060648201526084016102f5565b61057c85858585856113fe565b610a1f610aa4565b6001600160a01b038116610a9b5760405162461bcd60e51b815260206004820152602660248201527f4f776e61626c653a206e6577206f776e657220697320746865207a65726f206160448201527f646472657373000000000000000000000000000000000000000000000000000060648201526084016102f5565b61041a8161108a565b6003546001600160a01b031633146106d35760405162461bcd60e51b815260206004820181905260248201527f4f776e61626c653a2063616c6c6572206973206e6f7420746865206f776e657260448201526064016102f5565b805161082e90600290602084019061199d565b6001600160a01b038316610b8d5760405162461bcd60e51b815260206004820152602360248201527f455243313135353a206275726e2066726f6d20746865207a65726f206164647260448201527f657373000000000000000000000000000000000000000000000000000000000060648201526084016102f5565b336000610b99846115d4565b90506000610ba6846115d4565b60408051602080820183526000918290528882528181528282206001600160a01b038b1683529052205490915084811015610c485760405162461bcd60e51b8152602060048201526024808201527f455243313135353a206275726e20616d6f756e7420657863656564732062616c60448201527f616e63650000000000000000000000000000000000000000000000000000000060648201526084016102f5565b6000868152602081815260408083206001600160a01b038b81168086529184528285208a8703905582518b81529384018a90529092908816917fc3d58168c5ae7397731d063d5bbf3d657854427343f4c083240f7aacaa2d0f62910160405180910390a46040805160208101909152600090525b50505050505050565b6001600160a01b038416610d415760405162461bcd60e51b815260206004820152602160248201527f455243313135353a206d696e7420746f20746865207a65726f2061646472657360448201527f730000000000000000000000000000000000000000000000000000000000000060648201526084016102f5565b336000610d4d856115d4565b90506000610d5a856115d4565b90506000868152602081815260408083206001600160a01b038b16845290915281208054879290610d8c9084906120fb565b909155505060408051878152602081018790526001600160a01b03808a1692600092918716917fc3d58168c5ae7397731d063d5bbf3d657854427343f4c083240f7aacaa2d0f62910160405180910390a4610cbc8360008989898961161f565b8151835114610e635760405162461bcd60e51b815260206004820152602860248201527f455243313135353a2069647320616e6420616d6f756e7473206c656e6774682060448201527f6d69736d6174636800000000000000000000000000000000000000000000000060648201526084016102f5565b6001600160a01b038416610edf5760405162461bcd60e51b815260206004820152602560248201527f455243313135353a207472616e7366657220746f20746865207a65726f20616460448201527f647265737300000000000000000000000000000000000000000000000000000060648201526084016102f5565b3360005b845181101561101c576000858281518110610f0057610f0061214e565b602002602001015190506000858381518110610f1e57610f1e61214e565b602090810291909101810151600084815280835260408082206001600160a01b038e168352909352919091205490915081811015610fc45760405162461bcd60e51b815260206004820152602a60248201527f455243313135353a20696e73756666696369656e742062616c616e636520666f60448201527f72207472616e736665720000000000000000000000000000000000000000000060648201526084016102f5565b6000838152602081815260408083206001600160a01b038e8116855292528083208585039055908b168252812080548492906110019084906120fb565b925050819055505050508061101590612164565b9050610ee3565b50846001600160a01b0316866001600160a01b0316826001600160a01b03167f4a39dc06d4c0dbc64b70af90fd698a233a518aa5d07e595d983b8c0526c8f7fb878760405161106c92919061219d565b60405180910390a4611082818787878787611833565b505050505050565b600380546001600160a01b038381167fffffffffffffffffffffffff0000000000000000000000000000000000000000831681179093556040519116919082907f8be0079c531659141344cd1fd0a4f28419497f9722a3daafe3b4186f6b6457e090600090a35050565b816001600160a01b0316836001600160a01b0316141561117c5760405162461bcd60e51b815260206004820152602960248201527f455243313135353a2073657474696e6720617070726f76616c2073746174757360448201527f20666f722073656c66000000000000000000000000000000000000000000000060648201526084016102f5565b6001600160a01b0383811660008181526001602090815260408083209487168084529482529182902080547fffffffffffffffffffffffffffffffffffffffffffffffffffffffffffffff001686151590811790915591519182527f17307eab39ab6107e8899845ad3d59bd9653f200f220920489ca2b5937696c31910160405180910390a3505050565b6001600160a01b0384166112835760405162461bcd60e51b815260206004820152602160248201527f455243313135353a206d696e7420746f20746865207a65726f2061646472657360448201527f730000000000000000000000000000000000000000000000000000000000000060648201526084016102f5565b81518351146112fa5760405162461bcd60e51b815260206004820152602860248201527f455243313135353a2069647320616e6420616d6f756e7473206c656e6774682060448201527f6d69736d6174636800000000000000000000000000000000000000000000000060648201526084016102f5565b3360005b8451811015611396578381815181106113195761131961214e565b60200260200101516000808784815181106113365761133661214e565b602002602001015181526020019081526020016000206000886001600160a01b03166001600160a01b03168152602001908152602001600020600082825461137e91906120fb565b9091555081905061138e81612164565b9150506112fe565b50846001600160a01b031660006001600160a01b0316826001600160a01b03167f4a39dc06d4c0dbc64b70af90fd698a233a518aa5d07e595d983b8c0526c8f7fb87876040516113e792919061219d565b60405180910390a461057c81600087878787611833565b6001600160a01b03841661147a5760405162461bcd60e51b815260206004820152602560248201527f455243313135353a207472616e7366657220746f20746865207a65726f20616460448201527f647265737300000000000000000000000000000000000000000000000000000060648201526084016102f5565b336000611486856115d4565b90506000611493856115d4565b90506000868152602081815260408083206001600160a01b038c1684529091529020548581101561152c5760405162461bcd60e51b815260206004820152602a60248201527f455243313135353a20696e73756666696369656e742062616c616e636520666f60448201527f72207472616e736665720000000000000000000000000000000000000000000060648201526084016102f5565b6000878152602081815260408083206001600160a01b038d8116855292528083208985039055908a168252812080548892906115699084906120fb565b909155505060408051888152602081018890526001600160a01b03808b16928c821692918816917fc3d58168c5ae7397731d063d5bbf3d657854427343f4c083240f7aacaa2d0f62910160405180910390a46115c9848a8a8a8a8a61161f565b505050505050505050565b6040805160018082528183019092526060916000919060208083019080368337019050509050828160008151811061160e5761160e61214e565b602090810291909101015292915050565b6001600160a01b0384163b15611082576040517ff23a6e610000000000000000000000000000000000000000000000000000000081526001600160a01b0385169063f23a6e619061167c90899089908890889088906004016121cb565b602060405180830381600087803b15801561169657600080fd5b505af19250505080156116c6575060408051601f3d908101601f191682019092526116c39181019061220e565b60015b61177c576116d261222b565b806308c379a0141561170c57506116e7612247565b806116f2575061170e565b8060405162461bcd60e51b81526004016102f59190611c9d565b505b60405162461bcd60e51b815260206004820152603460248201527f455243313135353a207472616e7366657220746f206e6f6e2d4552433131353560448201527f526563656976657220696d706c656d656e74657200000000000000000000000060648201526084016102f5565b7fffffffff0000000000000000000000000000000000000000000000000000000081167ff23a6e610000000000000000000000000000000000000000000000000000000014610cbc5760405162461bcd60e51b815260206004820152602860248201527f455243313135353a204552433131353552656365697665722072656a6563746560448201527f6420746f6b656e7300000000000000000000000000000000000000000000000060648201526084016102f5565b6001600160a01b0384163b15611082576040517fbc197c810000000000000000000000000000000000000000000000000000000081526001600160a01b0385169063bc197c819061189090899089908890889088906004016122ef565b602060405180830381600087803b1580156118aa57600080fd5b505af19250505080156118da575060408051601f3d908101601f191682019092526118d79181019061220e565b60015b6118e6576116d261222b565b7fffffffff0000000000000000000000000000000000000000000000000000000081167fbc197c810000000000000000000000000000000000000000000000000000000014610cbc5760405162461bcd60e51b815260206004820152602860248201527f455243313135353a204552433131353552656365697665722072656a6563746560448201527f6420746f6b656e7300000000000000000000000000000000000000000000000060648201526084016102f5565b8280546119a990612113565b90600052602060002090601f0160209004810192826119cb5760008555611a11565b82601f106119e457805160ff1916838001178555611a11565b82800160010185558215611a11579182015b82811115611a115782518255916020019190600101906119f6565b50611a1d929150611a21565b5090565b5b80821115611a1d5760008155600101611a22565b80356001600160a01b0381168114611a4d57600080fd5b919050565b60008060408385031215611a6557600080fd5b611a6e83611a36565b946020939093013593505050565b7fffffffff000000000000000000000000000000000000000000000000000000008116811461041a57600080fd5b600060208284031215611abc57600080fd5b8135611ac781611a7c565b9392505050565b634e487b7160e01b600052604160045260246000fd5b601f19601f830116810181811067ffffffffffffffff82111715611b0a57611b0a611ace565b6040525050565b600067ffffffffffffffff831115611b2b57611b2b611ace565b604051611b426020601f19601f8701160182611ae4565b809150838152848484011115611b5757600080fd5b83836020830137600060208583010152509392505050565b600060208284031215611b8157600080fd5b813567ffffffffffffffff811115611b9857600080fd5b8201601f81018413611ba957600080fd5b611bb884823560208401611b11565b949350505050565b600082601f830112611bd157600080fd5b611ac783833560208501611b11565b600080600060608486031215611bf557600080fd5b611bfe84611a36565b925060208401359150604084013567ffffffffffffffff811115611c2157600080fd5b611c2d86828701611bc0565b9150509250925092565b600060208284031215611c4957600080fd5b5035919050565b6000815180845260005b81811015611c7657602081850181015186830182015201611c5a565b81811115611c88576000602083870101525b50601f01601f19169290920160200192915050565b602081526000611ac76020830184611c50565b600067ffffffffffffffff821115611cca57611cca611ace565b5060051b60200190565b600082601f830112611ce557600080fd5b81356020611cf282611cb0565b604051611cff8282611ae4565b83815260059390931b8501820192828101915086841115611d1f57600080fd5b8286015b84811015611d3a5780358352918301918301611d23565b509695505050505050565b600080600080600060a08688031215611d5d57600080fd5b611d6686611a36565b9450611d7460208701611a36565b9350604086013567ffffffffffffffff80821115611d9157600080fd5b611d9d89838a01611cd4565b94506060880135915080821115611db357600080fd5b611dbf89838a01611cd4565b93506080880135915080821115611dd557600080fd5b50611de288828901611bc0565b9150509295509295909350565b60008060408385031215611e0257600080fd5b823567ffffffffffffffff80821115611e1a57600080fd5b818501915085601f830112611e2e57600080fd5b81356020611e3b82611cb0565b604051611e488282611ae4565b83815260059390931b8501820192828101915089841115611e6857600080fd5b948201945b83861015611e8d57611e7e86611a36565b82529482019490820190611e6d565b96505086013592505080821115611ea357600080fd5b50611eb085828601611cd4565b9150509250929050565b600081518084526020808501945080840160005b83811015611eea57815187529582019590820190600101611ece565b509495945050505050565b602081526000611ac76020830184611eba565b60008060008060808587031215611f1e57600080fd5b611f2785611a36565b93506020850135925060408501359150606085013567ffffffffffffffff811115611f5157600080fd5b611f5d87828801611bc0565b91505092959194509250565b60008060408385031215611f7c57600080fd5b611f8583611a36565b915060208301358015158114611f9a57600080fd5b809150509250929050565b60008060008060808587031215611fbb57600080fd5b611fc485611a36565b9350602085013567ffffffffffffffff80821115611fe157600080fd5b611fed88838901611cd4565b9450604087013591508082111561200357600080fd5b61200f88838901611cd4565b9350606087013591508082111561202557600080fd5b50611f5d87828801611bc0565b6000806040838503121561204557600080fd5b61204e83611a36565b915061205c60208401611a36565b90509250929050565b600080600080600060a0868803121561207d57600080fd5b61208686611a36565b945061209460208701611a36565b93506040860135925060608601359150608086013567ffffffffffffffff8111156120be57600080fd5b611de288828901611bc0565b6000602082840312156120dc57600080fd5b611ac782611a36565b634e487b7160e01b600052601160045260246000fd5b6000821982111561210e5761210e6120e5565b500190565b600181811c9082168061212757607f821691505b6020821081141561214857634e487b7160e01b600052602260045260246000fd5b50919050565b634e487b7160e01b600052603260045260246000fd5b60007fffffffffffffffffffffffffffffffffffffffffffffffffffffffffffffffff821415612196576121966120e5565b5060010190565b6040815260006121b06040830185611eba565b82810360208401526121c28185611eba565b95945050505050565b60006001600160a01b03808816835280871660208401525084604083015283606083015260a0608083015261220360a0830184611c50565b979650505050505050565b60006020828403121561222057600080fd5b8151611ac781611a7c565b600060033d11156122445760046000803e5060005160e01c5b90565b600060443d10156122555790565b6040517ffffffffffffffffffffffffffffffffffffffffffffffffffffffffffffffffc803d016004833e81513d67ffffffffffffffff81602484011181841117156122a357505050505090565b82850191508151818111156122bb5750505050505090565b843d87010160208285010111156122d55750505050505090565b6122e460208286010187611ae4565b509095945050505050565b60006001600160a01b03808816835280871660208401525060a0604083015261231b60a0830186611eba565b828103606084015261232d8186611eba565b905082810360808401526123418185611c50565b9897505050505050505056fea264697066735822122042744e6ff7cfe375b7519840d5a944505ca9f596a71343a9f9eaa8aaecc9edfd64736f6c63430008080033",
  "devdoc": {
    "kind": "dev",
    "methods": {
      "balanceOf(address,uint256)": {
        "details": "See {IERC1155-balanceOf}. Requirements: - `account` cannot be the zero address."
      },
      "balanceOfBatch(address[],uint256[])": {
        "details": "See {IERC1155-balanceOfBatch}. Requirements: - `accounts` and `ids` must have the same length."
      },
      "isApprovedForAll(address,address)": {
        "details": "See {IERC1155-isApprovedForAll}."
      },
      "owner()": {
        "details": "Returns the address of the current owner."
      },
      "renounceOwnership()": {
        "details": "Leaves the contract without owner. It will not be possible to call `onlyOwner` functions anymore. Can only be called by the current owner. NOTE: Renouncing ownership will leave the contract without an owner, thereby removing any functionality that is only available to the owner."
      },
      "safeBatchTransferFrom(address,address,uint256[],uint256[],bytes)": {
        "details": "See {IERC1155-safeBatchTransferFrom}."
      },
      "safeTransferFrom(address,address,uint256,uint256,bytes)": {
        "details": "See {IERC1155-safeTransferFrom}."
      },
      "setApprovalForAll(address,bool)": {
        "details": "See {IERC1155-setApprovalForAll}."
      },
      "supportsInterface(bytes4)": {
        "details": "See {IERC165-supportsInterface}."
      },
      "transferOwnership(address)": {
        "details": "Transfers ownership of the contract to a new account (`newOwner`). Can only be called by the current owner."
      },
      "uri(uint256)": {
        "details": "See {IERC1155MetadataURI-uri}. This implementation returns the same URI for *all* token types. It relies on the token type ID substitution mechanism https://eips.ethereum.org/EIPS/eip-1155#metadata[defined in the EIP]. Clients calling this function must replace the `\\{id\\}` substring with the actual token type ID."
      }
    },
    "version": 1
  },
  "userdoc": {
    "kind": "user",
    "methods": {},
    "version": 1
  },
  "storageLayout": {
    "storage": [
      {
        "astId": 152,
        "contract": "contracts/tokens/RankToken.sol:RankToken",
        "label": "_balances",
        "offset": 0,
        "slot": "0",
        "type": "t_mapping(t_uint256,t_mapping(t_address,t_uint256))"
      },
      {
        "astId": 158,
        "contract": "contracts/tokens/RankToken.sol:RankToken",
        "label": "_operatorApprovals",
        "offset": 0,
        "slot": "1",
        "type": "t_mapping(t_address,t_mapping(t_address,t_bool))"
      },
      {
        "astId": 160,
        "contract": "contracts/tokens/RankToken.sol:RankToken",
        "label": "_uri",
        "offset": 0,
        "slot": "2",
        "type": "t_string_storage"
      },
      {
        "astId": 7,
        "contract": "contracts/tokens/RankToken.sol:RankToken",
        "label": "_owner",
        "offset": 0,
        "slot": "3",
        "type": "t_address"
      }
    ],
    "types": {
      "t_address": {
        "encoding": "inplace",
        "label": "address",
        "numberOfBytes": "20"
      },
      "t_bool": {
        "encoding": "inplace",
        "label": "bool",
        "numberOfBytes": "1"
      },
      "t_mapping(t_address,t_bool)": {
        "encoding": "mapping",
        "key": "t_address",
        "label": "mapping(address => bool)",
        "numberOfBytes": "32",
        "value": "t_bool"
      },
      "t_mapping(t_address,t_mapping(t_address,t_bool))": {
        "encoding": "mapping",
        "key": "t_address",
        "label": "mapping(address => mapping(address => bool))",
        "numberOfBytes": "32",
        "value": "t_mapping(t_address,t_bool)"
      },
      "t_mapping(t_address,t_uint256)": {
        "encoding": "mapping",
        "key": "t_address",
        "label": "mapping(address => uint256)",
        "numberOfBytes": "32",
        "value": "t_uint256"
      },
      "t_mapping(t_uint256,t_mapping(t_address,t_uint256))": {
        "encoding": "mapping",
        "key": "t_uint256",
        "label": "mapping(uint256 => mapping(address => uint256))",
        "numberOfBytes": "32",
        "value": "t_mapping(t_address,t_uint256)"
      },
      "t_string_storage": {
        "encoding": "bytes",
        "label": "string",
        "numberOfBytes": "32"
      },
      "t_uint256": {
        "encoding": "inplace",
        "label": "uint256",
        "numberOfBytes": "32"
      }
    }
  }
}