{
  "address": "0x0eE8136B192a2555E6aa6d02a8bF515F015AE2F3",
  "abi": [
    {
      "inputs": [
        {
          "internalType": "string",
          "name": "uri_",
          "type": "string"
        },
        {
          "internalType": "address",
          "name": "owner",
          "type": "address"
        }
      ],
      "stateMutability": "nonpayable",
      "type": "constructor"
    },
    {
      "anonymous": false,
      "inputs": [
        {
          "indexed": true,
          "internalType": "address",
          "name": "account",
          "type": "address"
        },
        {
          "indexed": true,
          "internalType": "address",
          "name": "operator",
          "type": "address"
        },
        {
          "indexed": false,
          "internalType": "bool",
          "name": "approved",
          "type": "bool"
        }
      ],
      "name": "ApprovalForAll",
      "type": "event"
    },
    {
      "anonymous": false,
      "inputs": [
        {
          "indexed": true,
          "internalType": "address",
          "name": "previousOwner",
          "type": "address"
        },
        {
          "indexed": true,
          "internalType": "address",
          "name": "newOwner",
          "type": "address"
        }
      ],
      "name": "OwnershipTransferred",
      "type": "event"
    },
    {
      "anonymous": false,
      "inputs": [
        {
          "indexed": true,
          "internalType": "address",
          "name": "operator",
          "type": "address"
        },
        {
          "indexed": true,
          "internalType": "address",
          "name": "from",
          "type": "address"
        },
        {
          "indexed": true,
          "internalType": "address",
          "name": "to",
          "type": "address"
        },
        {
          "indexed": false,
          "internalType": "uint256[]",
          "name": "ids",
          "type": "uint256[]"
        },
        {
          "indexed": false,
          "internalType": "uint256[]",
          "name": "values",
          "type": "uint256[]"
        }
      ],
      "name": "TransferBatch",
      "type": "event"
    },
    {
      "anonymous": false,
      "inputs": [
        {
          "indexed": true,
          "internalType": "address",
          "name": "operator",
          "type": "address"
        },
        {
          "indexed": true,
          "internalType": "address",
          "name": "from",
          "type": "address"
        },
        {
          "indexed": true,
          "internalType": "address",
          "name": "to",
          "type": "address"
        },
        {
          "indexed": false,
          "internalType": "uint256",
          "name": "id",
          "type": "uint256"
        },
        {
          "indexed": false,
          "internalType": "uint256",
          "name": "value",
          "type": "uint256"
        }
      ],
      "name": "TransferSingle",
      "type": "event"
    },
    {
      "anonymous": false,
      "inputs": [
        {
          "indexed": false,
          "internalType": "string",
          "name": "value",
          "type": "string"
        },
        {
          "indexed": true,
          "internalType": "uint256",
          "name": "id",
          "type": "uint256"
        }
      ],
      "name": "URI",
      "type": "event"
    },
    {
      "inputs": [
        {
          "internalType": "address",
          "name": "account",
          "type": "address"
        },
        {
          "internalType": "uint256",
          "name": "id",
          "type": "uint256"
        }
      ],
      "name": "balanceOf",
      "outputs": [
        {
          "internalType": "uint256",
          "name": "",
          "type": "uint256"
        }
      ],
      "stateMutability": "view",
      "type": "function"
    },
    {
      "inputs": [
        {
          "internalType": "address[]",
          "name": "accounts",
          "type": "address[]"
        },
        {
          "internalType": "uint256[]",
          "name": "ids",
          "type": "uint256[]"
        }
      ],
      "name": "balanceOfBatch",
      "outputs": [
        {
          "internalType": "uint256[]",
          "name": "",
          "type": "uint256[]"
        }
      ],
      "stateMutability": "view",
      "type": "function"
    },
    {
      "inputs": [
        {
          "internalType": "address",
          "name": "to",
          "type": "address"
        },
        {
          "internalType": "uint256[]",
          "name": "ids",
          "type": "uint256[]"
        },
        {
          "internalType": "uint256[]",
          "name": "amounts",
          "type": "uint256[]"
        },
        {
          "internalType": "bytes",
          "name": "data",
          "type": "bytes"
        }
      ],
      "name": "batchMint",
      "outputs": [],
      "stateMutability": "nonpayable",
      "type": "function"
    },
    {
      "inputs": [
        {
          "internalType": "address",
          "name": "account",
          "type": "address"
        },
        {
          "internalType": "address",
          "name": "operator",
          "type": "address"
        }
      ],
      "name": "isApprovedForAll",
      "outputs": [
        {
          "internalType": "bool",
          "name": "",
          "type": "bool"
        }
      ],
      "stateMutability": "view",
      "type": "function"
    },
    {
      "inputs": [
        {
          "internalType": "address",
          "name": "to",
          "type": "address"
        },
        {
          "internalType": "uint256",
          "name": "id",
          "type": "uint256"
        },
        {
          "internalType": "bytes",
          "name": "data",
          "type": "bytes"
        }
      ],
      "name": "levelUp",
      "outputs": [],
      "stateMutability": "nonpayable",
      "type": "function"
    },
    {
      "inputs": [
        {
          "internalType": "address",
          "name": "to",
          "type": "address"
        },
        {
          "internalType": "uint256",
          "name": "amount",
          "type": "uint256"
        },
        {
          "internalType": "uint256",
          "name": "poolId",
          "type": "uint256"
        },
        {
          "internalType": "bytes",
          "name": "data",
          "type": "bytes"
        }
      ],
      "name": "mint",
      "outputs": [],
      "stateMutability": "nonpayable",
      "type": "function"
    },
    {
      "inputs": [],
      "name": "owner",
      "outputs": [
        {
          "internalType": "address",
          "name": "",
          "type": "address"
        }
      ],
      "stateMutability": "view",
      "type": "function"
    },
    {
      "inputs": [],
      "name": "renounceOwnership",
      "outputs": [],
      "stateMutability": "nonpayable",
      "type": "function"
    },
    {
      "inputs": [
        {
          "internalType": "address",
          "name": "from",
          "type": "address"
        },
        {
          "internalType": "address",
          "name": "to",
          "type": "address"
        },
        {
          "internalType": "uint256[]",
          "name": "ids",
          "type": "uint256[]"
        },
        {
          "internalType": "uint256[]",
          "name": "amounts",
          "type": "uint256[]"
        },
        {
          "internalType": "bytes",
          "name": "data",
          "type": "bytes"
        }
      ],
      "name": "safeBatchTransferFrom",
      "outputs": [],
      "stateMutability": "nonpayable",
      "type": "function"
    },
    {
      "inputs": [
        {
          "internalType": "address",
          "name": "from",
          "type": "address"
        },
        {
          "internalType": "address",
          "name": "to",
          "type": "address"
        },
        {
          "internalType": "uint256",
          "name": "id",
          "type": "uint256"
        },
        {
          "internalType": "uint256",
          "name": "amount",
          "type": "uint256"
        },
        {
          "internalType": "bytes",
          "name": "data",
          "type": "bytes"
        }
      ],
      "name": "safeTransferFrom",
      "outputs": [],
      "stateMutability": "nonpayable",
      "type": "function"
    },
    {
      "inputs": [
        {
          "internalType": "address",
          "name": "operator",
          "type": "address"
        },
        {
          "internalType": "bool",
          "name": "approved",
          "type": "bool"
        }
      ],
      "name": "setApprovalForAll",
      "outputs": [],
      "stateMutability": "nonpayable",
      "type": "function"
    },
    {
      "inputs": [
        {
          "internalType": "bytes4",
          "name": "interfaceId",
          "type": "bytes4"
        }
      ],
      "name": "supportsInterface",
      "outputs": [
        {
          "internalType": "bool",
          "name": "",
          "type": "bool"
        }
      ],
      "stateMutability": "view",
      "type": "function"
    },
    {
      "inputs": [
        {
          "internalType": "address",
          "name": "newOwner",
          "type": "address"
        }
      ],
      "name": "transferOwnership",
      "outputs": [],
      "stateMutability": "nonpayable",
      "type": "function"
    },
    {
      "inputs": [
        {
          "internalType": "uint256",
          "name": "",
          "type": "uint256"
        }
      ],
      "name": "uri",
      "outputs": [
        {
          "internalType": "string",
          "name": "",
          "type": "string"
        }
      ],
      "stateMutability": "view",
      "type": "function"
    }
  ],
  "transactionHash": "0xcbcf8485314dc001b8b4d51f23bbaaa69cb8485b086f324e1b03d6529faa6398",
  "args": [
    "https://peersky.infura-ipfs.io/ipfs/Qmam3ryLCZCTaAN7qTQrNiXwgbiBFyQypXkWcrjPnsCPHQ",
    "0xCA618ea6Adb914B694E2acF1d77fe92894fbfA30"
  ],
  "numDeployments": 1,
  "solcInputHash": "a78886197d926f03553d25578280cc88",
  "bytecode": "0x60806040523480156200001157600080fd5b5060405162002672380380620026728339810160408190526200003491620002e7565b816200004081620000c6565b506200004c33620000df565b6001600160a01b038116620000b35760405162461bcd60e51b815260206004820152602260248201527f6d7573742073706563696679206f776e6572206f662074686520636f6e74726160448201526118dd60f21b60648201526084015b60405180910390fd5b620000be8162000131565b505062000415565b8051620000db9060029060208401906200020e565b5050565b600380546001600160a01b038381166001600160a01b0319831681179093556040519116919082907f8be0079c531659141344cd1fd0a4f28419497f9722a3daafe3b4186f6b6457e090600090a35050565b6200013b620001b0565b6001600160a01b038116620001a25760405162461bcd60e51b815260206004820152602660248201527f4f776e61626c653a206e6577206f776e657220697320746865207a65726f206160448201526564647265737360d01b6064820152608401620000aa565b620001ad81620000df565b50565b6003546001600160a01b031633146200020c5760405162461bcd60e51b815260206004820181905260248201527f4f776e61626c653a2063616c6c6572206973206e6f7420746865206f776e65726044820152606401620000aa565b565b8280546200021c90620003d8565b90600052602060002090601f0160209004810192826200024057600085556200028b565b82601f106200025b57805160ff19168380011785556200028b565b828001600101855582156200028b579182015b828111156200028b5782518255916020019190600101906200026e565b50620002999291506200029d565b5090565b5b808211156200029957600081556001016200029e565b634e487b7160e01b600052604160045260246000fd5b80516001600160a01b0381168114620002e257600080fd5b919050565b60008060408385031215620002fb57600080fd5b82516001600160401b03808211156200031357600080fd5b818501915085601f8301126200032857600080fd5b8151818111156200033d576200033d620002b4565b604051601f8201601f19908116603f01168101908382118183101715620003685762000368620002b4565b816040528281526020935088848487010111156200038557600080fd5b600091505b82821015620003a957848201840151818301850152908301906200038a565b82821115620003bb5760008484830101525b9550620003cd915050858201620002ca565b925050509250929050565b600181811c90821680620003ed57607f821691505b602082108114156200040f57634e487b7160e01b600052602260045260246000fd5b50919050565b61224d80620004256000396000f3fe608060405234801561001057600080fd5b50600436106100e95760003560e01c8063731133e91161008c578063b48ab8b611610066578063b48ab8b6146101e8578063e985e9c5146101fb578063f242432a14610237578063f2fde38b1461024a57600080fd5b8063731133e9146101a75780638da5cb5b146101ba578063a22cb465146101d557600080fd5b80630e89341c116100c85780630e89341c1461014c5780632eb2c2d61461016c5780634e1273f41461017f578063715018a61461019f57600080fd5b8062fdd58e146100ee57806301ffc9a7146101145780630dbaf77f14610137575b600080fd5b6101016100fc366004611977565b61025d565b6040519081526020015b60405180910390f35b6101276101223660046119cf565b610306565b604051901515815260200161010b565b61014a610145366004611aaa565b6103eb565b005b61015f61015a366004611b01565b61041b565b60405161010b9190611b67565b61014a61017a366004611c0f565b6104af565b61019261018d366004611cb9565b610551565b60405161010b9190611dbf565b61014a61068f565b61014a6101b5366004611dd2565b6106a3565b6003546040516001600160a01b03909116815260200161010b565b61014a6101e3366004611e33565b6107f1565b61014a6101f6366004611e6f565b610800565b610127610209366004611efc565b6001600160a01b03918216600090815260016020908152604080832093909416825291909152205460ff1690565b61014a610245366004611f2f565b61094a565b61014a610258366004611f94565b6109e5565b60006001600160a01b0383166102e05760405162461bcd60e51b815260206004820152602a60248201527f455243313135353a2061646472657373207a65726f206973206e6f742061207660448201527f616c6964206f776e65720000000000000000000000000000000000000000000060648201526084015b60405180910390fd5b506000908152602081815260408083206001600160a01b03949094168352929052205490565b60007fffffffff0000000000000000000000000000000000000000000000000000000082167fd9b67a2600000000000000000000000000000000000000000000000000000000148061039957507fffffffff0000000000000000000000000000000000000000000000000000000082167f0e89341c00000000000000000000000000000000000000000000000000000000145b806103e557507f01ffc9a7000000000000000000000000000000000000000000000000000000007fffffffff000000000000000000000000000000000000000000000000000000008316145b92915050565b6103f3610a75565b6103ff83836001610acf565b6104168361040e846001611fc5565b600184610c83565b505050565b60606002805461042a90611fdd565b80601f016020809104026020016040519081016040528092919081815260200182805461045690611fdd565b80156104a35780601f10610478576101008083540402835291602001916104a3565b820191906000526020600020905b81548152906001019060200180831161048657829003601f168201915b50505050509050919050565b6001600160a01b0385163314806104cb57506104cb8533610209565b61053d5760405162461bcd60e51b815260206004820152602e60248201527f455243313135353a2063616c6c6572206973206e6f7420746f6b656e206f776e60448201527f6572206f7220617070726f76656400000000000000000000000000000000000060648201526084016102d7565b61054a8585858585610daa565b5050505050565b606081518351146105ca5760405162461bcd60e51b815260206004820152602960248201527f455243313135353a206163636f756e747320616e6420696473206c656e67746860448201527f206d69736d61746368000000000000000000000000000000000000000000000060648201526084016102d7565b6000835167ffffffffffffffff8111156105e6576105e66119f3565b60405190808252806020026020018201604052801561060f578160200160208202803683370190505b50905060005b84518110156106875761065a85828151811061063357610633612018565b602002602001015185838151811061064d5761064d612018565b602002602001015161025d565b82828151811061066c5761066c612018565b60209081029190910101526106808161202e565b9050610615565b509392505050565b610697610a75565b6106a16000611048565b565b6106ab610a75565b6001600160a01b0384166107105760405162461bcd60e51b815260206004820152602660248201527f52616e6b546f6b656e2d3e6d696e743a2041646472657373206e6f742073706560448201526518da599a595960d21b60648201526084016102d7565b826107835760405162461bcd60e51b815260206004820152602560248201527f52616e6b546f6b656e2d3e6d696e743a20616d6f756e74206e6f74207370656360448201527f696669656400000000000000000000000000000000000000000000000000000060648201526084016102d7565b816107df5760405162461bcd60e51b815260206004820152602660248201527f52616e6b546f6b656e2d3e6d696e743a20706f6f6c206964206e6f742073706560448201526518da599a595960d21b60648201526084016102d7565b6107eb84838584610c83565b50505050565b6107fc3383836110b2565b5050565b610808610a75565b6001600160a01b03841661086d5760405162461bcd60e51b815260206004820152602660248201527f52616e6b546f6b656e2d3e6d696e743a2041646472657373206e6f742073706560448201526518da599a595960d21b60648201526084016102d7565b81516108e15760405162461bcd60e51b815260206004820152602560248201527f52616e6b546f6b656e2d3e6d696e743a20616d6f756e74206e6f74207370656360448201527f696669656400000000000000000000000000000000000000000000000000000060648201526084016102d7565b825161093e5760405162461bcd60e51b815260206004820152602660248201527f52616e6b546f6b656e2d3e6d696e743a20706f6f6c206964206e6f742073706560448201526518da599a595960d21b60648201526084016102d7565b6107eb848484846111c5565b6001600160a01b03851633148061096657506109668533610209565b6109d85760405162461bcd60e51b815260206004820152602e60248201527f455243313135353a2063616c6c6572206973206e6f7420746f6b656e206f776e60448201527f6572206f7220617070726f76656400000000000000000000000000000000000060648201526084016102d7565b61054a85858585856113bc565b6109ed610a75565b6001600160a01b038116610a695760405162461bcd60e51b815260206004820152602660248201527f4f776e61626c653a206e6577206f776e657220697320746865207a65726f206160448201527f646472657373000000000000000000000000000000000000000000000000000060648201526084016102d7565b610a7281611048565b50565b6003546001600160a01b031633146106a15760405162461bcd60e51b815260206004820181905260248201527f4f776e61626c653a2063616c6c6572206973206e6f7420746865206f776e657260448201526064016102d7565b6001600160a01b038316610b4b5760405162461bcd60e51b815260206004820152602360248201527f455243313135353a206275726e2066726f6d20746865207a65726f206164647260448201527f657373000000000000000000000000000000000000000000000000000000000060648201526084016102d7565b336000610b5784611592565b90506000610b6484611592565b60408051602080820183526000918290528882528181528282206001600160a01b038b1683529052205490915084811015610c065760405162461bcd60e51b8152602060048201526024808201527f455243313135353a206275726e20616d6f756e7420657863656564732062616c60448201527f616e63650000000000000000000000000000000000000000000000000000000060648201526084016102d7565b6000868152602081815260408083206001600160a01b038b81168086529184528285208a8703905582518b81529384018a90529092908816917fc3d58168c5ae7397731d063d5bbf3d657854427343f4c083240f7aacaa2d0f62910160405180910390a46040805160208101909152600090525b50505050505050565b6001600160a01b038416610cff5760405162461bcd60e51b815260206004820152602160248201527f455243313135353a206d696e7420746f20746865207a65726f2061646472657360448201527f730000000000000000000000000000000000000000000000000000000000000060648201526084016102d7565b336000610d0b85611592565b90506000610d1885611592565b90506000868152602081815260408083206001600160a01b038b16845290915281208054879290610d4a908490611fc5565b909155505060408051878152602081018790526001600160a01b03808a1692600092918716917fc3d58168c5ae7397731d063d5bbf3d657854427343f4c083240f7aacaa2d0f62910160405180910390a4610c7a836000898989896115dd565b8151835114610e215760405162461bcd60e51b815260206004820152602860248201527f455243313135353a2069647320616e6420616d6f756e7473206c656e6774682060448201527f6d69736d6174636800000000000000000000000000000000000000000000000060648201526084016102d7565b6001600160a01b038416610e9d5760405162461bcd60e51b815260206004820152602560248201527f455243313135353a207472616e7366657220746f20746865207a65726f20616460448201527f647265737300000000000000000000000000000000000000000000000000000060648201526084016102d7565b3360005b8451811015610fda576000858281518110610ebe57610ebe612018565b602002602001015190506000858381518110610edc57610edc612018565b602090810291909101810151600084815280835260408082206001600160a01b038e168352909352919091205490915081811015610f825760405162461bcd60e51b815260206004820152602a60248201527f455243313135353a20696e73756666696369656e742062616c616e636520666f60448201527f72207472616e736665720000000000000000000000000000000000000000000060648201526084016102d7565b6000838152602081815260408083206001600160a01b038e8116855292528083208585039055908b16825281208054849290610fbf908490611fc5565b9250508190555050505080610fd39061202e565b9050610ea1565b50846001600160a01b0316866001600160a01b0316826001600160a01b03167f4a39dc06d4c0dbc64b70af90fd698a233a518aa5d07e595d983b8c0526c8f7fb878760405161102a929190612067565b60405180910390a46110408187878787876117f1565b505050505050565b600380546001600160a01b038381167fffffffffffffffffffffffff0000000000000000000000000000000000000000831681179093556040519116919082907f8be0079c531659141344cd1fd0a4f28419497f9722a3daafe3b4186f6b6457e090600090a35050565b816001600160a01b0316836001600160a01b0316141561113a5760405162461bcd60e51b815260206004820152602960248201527f455243313135353a2073657474696e6720617070726f76616c2073746174757360448201527f20666f722073656c66000000000000000000000000000000000000000000000060648201526084016102d7565b6001600160a01b0383811660008181526001602090815260408083209487168084529482529182902080547fffffffffffffffffffffffffffffffffffffffffffffffffffffffffffffff001686151590811790915591519182527f17307eab39ab6107e8899845ad3d59bd9653f200f220920489ca2b5937696c31910160405180910390a3505050565b6001600160a01b0384166112415760405162461bcd60e51b815260206004820152602160248201527f455243313135353a206d696e7420746f20746865207a65726f2061646472657360448201527f730000000000000000000000000000000000000000000000000000000000000060648201526084016102d7565b81518351146112b85760405162461bcd60e51b815260206004820152602860248201527f455243313135353a2069647320616e6420616d6f756e7473206c656e6774682060448201527f6d69736d6174636800000000000000000000000000000000000000000000000060648201526084016102d7565b3360005b8451811015611354578381815181106112d7576112d7612018565b60200260200101516000808784815181106112f4576112f4612018565b602002602001015181526020019081526020016000206000886001600160a01b03166001600160a01b03168152602001908152602001600020600082825461133c9190611fc5565b9091555081905061134c8161202e565b9150506112bc565b50846001600160a01b031660006001600160a01b0316826001600160a01b03167f4a39dc06d4c0dbc64b70af90fd698a233a518aa5d07e595d983b8c0526c8f7fb87876040516113a5929190612067565b60405180910390a461054a816000878787876117f1565b6001600160a01b0384166114385760405162461bcd60e51b815260206004820152602560248201527f455243313135353a207472616e7366657220746f20746865207a65726f20616460448201527f647265737300000000000000000000000000000000000000000000000000000060648201526084016102d7565b33600061144485611592565b9050600061145185611592565b90506000868152602081815260408083206001600160a01b038c168452909152902054858110156114ea5760405162461bcd60e51b815260206004820152602a60248201527f455243313135353a20696e73756666696369656e742062616c616e636520666f60448201527f72207472616e736665720000000000000000000000000000000000000000000060648201526084016102d7565b6000878152602081815260408083206001600160a01b038d8116855292528083208985039055908a16825281208054889290611527908490611fc5565b909155505060408051888152602081018890526001600160a01b03808b16928c821692918816917fc3d58168c5ae7397731d063d5bbf3d657854427343f4c083240f7aacaa2d0f62910160405180910390a4611587848a8a8a8a8a6115dd565b505050505050505050565b604080516001808252818301909252606091600091906020808301908036833701905050905082816000815181106115cc576115cc612018565b602090810291909101015292915050565b6001600160a01b0384163b15611040576040517ff23a6e610000000000000000000000000000000000000000000000000000000081526001600160a01b0385169063f23a6e619061163a9089908990889088908890600401612095565b602060405180830381600087803b15801561165457600080fd5b505af1925050508015611684575060408051601f3d908101601f19168201909252611681918101906120d8565b60015b61173a576116906120f5565b806308c379a014156116ca57506116a5612111565b806116b057506116cc565b8060405162461bcd60e51b81526004016102d79190611b67565b505b60405162461bcd60e51b815260206004820152603460248201527f455243313135353a207472616e7366657220746f206e6f6e2d4552433131353560448201527f526563656976657220696d706c656d656e74657200000000000000000000000060648201526084016102d7565b7fffffffff0000000000000000000000000000000000000000000000000000000081167ff23a6e610000000000000000000000000000000000000000000000000000000014610c7a5760405162461bcd60e51b815260206004820152602860248201527f455243313135353a204552433131353552656365697665722072656a6563746560448201527f6420746f6b656e7300000000000000000000000000000000000000000000000060648201526084016102d7565b6001600160a01b0384163b15611040576040517fbc197c810000000000000000000000000000000000000000000000000000000081526001600160a01b0385169063bc197c819061184e90899089908890889088906004016121b9565b602060405180830381600087803b15801561186857600080fd5b505af1925050508015611898575060408051601f3d908101601f19168201909252611895918101906120d8565b60015b6118a4576116906120f5565b7fffffffff0000000000000000000000000000000000000000000000000000000081167fbc197c810000000000000000000000000000000000000000000000000000000014610c7a5760405162461bcd60e51b815260206004820152602860248201527f455243313135353a204552433131353552656365697665722072656a6563746560448201527f6420746f6b656e7300000000000000000000000000000000000000000000000060648201526084016102d7565b80356001600160a01b038116811461197257600080fd5b919050565b6000806040838503121561198a57600080fd5b6119938361195b565b946020939093013593505050565b7fffffffff0000000000000000000000000000000000000000000000000000000081168114610a7257600080fd5b6000602082840312156119e157600080fd5b81356119ec816119a1565b9392505050565b634e487b7160e01b600052604160045260246000fd5b601f19601f830116810181811067ffffffffffffffff82111715611a2f57611a2f6119f3565b6040525050565b600082601f830112611a4757600080fd5b813567ffffffffffffffff811115611a6157611a616119f3565b604051611a786020601f19601f8501160182611a09565b818152846020838601011115611a8d57600080fd5b816020850160208301376000918101602001919091529392505050565b600080600060608486031215611abf57600080fd5b611ac88461195b565b925060208401359150604084013567ffffffffffffffff811115611aeb57600080fd5b611af786828701611a36565b9150509250925092565b600060208284031215611b1357600080fd5b5035919050565b6000815180845260005b81811015611b4057602081850181015186830182015201611b24565b81811115611b52576000602083870101525b50601f01601f19169290920160200192915050565b6020815260006119ec6020830184611b1a565b600067ffffffffffffffff821115611b9457611b946119f3565b5060051b60200190565b600082601f830112611baf57600080fd5b81356020611bbc82611b7a565b604051611bc98282611a09565b83815260059390931b8501820192828101915086841115611be957600080fd5b8286015b84811015611c045780358352918301918301611bed565b509695505050505050565b600080600080600060a08688031215611c2757600080fd5b611c308661195b565b9450611c3e6020870161195b565b9350604086013567ffffffffffffffff80821115611c5b57600080fd5b611c6789838a01611b9e565b94506060880135915080821115611c7d57600080fd5b611c8989838a01611b9e565b93506080880135915080821115611c9f57600080fd5b50611cac88828901611a36565b9150509295509295909350565b60008060408385031215611ccc57600080fd5b823567ffffffffffffffff80821115611ce457600080fd5b818501915085601f830112611cf857600080fd5b81356020611d0582611b7a565b604051611d128282611a09565b83815260059390931b8501820192828101915089841115611d3257600080fd5b948201945b83861015611d5757611d488661195b565b82529482019490820190611d37565b96505086013592505080821115611d6d57600080fd5b50611d7a85828601611b9e565b9150509250929050565b600081518084526020808501945080840160005b83811015611db457815187529582019590820190600101611d98565b509495945050505050565b6020815260006119ec6020830184611d84565b60008060008060808587031215611de857600080fd5b611df18561195b565b93506020850135925060408501359150606085013567ffffffffffffffff811115611e1b57600080fd5b611e2787828801611a36565b91505092959194509250565b60008060408385031215611e4657600080fd5b611e4f8361195b565b915060208301358015158114611e6457600080fd5b809150509250929050565b60008060008060808587031215611e8557600080fd5b611e8e8561195b565b9350602085013567ffffffffffffffff80821115611eab57600080fd5b611eb788838901611b9e565b94506040870135915080821115611ecd57600080fd5b611ed988838901611b9e565b93506060870135915080821115611eef57600080fd5b50611e2787828801611a36565b60008060408385031215611f0f57600080fd5b611f188361195b565b9150611f266020840161195b565b90509250929050565b600080600080600060a08688031215611f4757600080fd5b611f508661195b565b9450611f5e6020870161195b565b93506040860135925060608601359150608086013567ffffffffffffffff811115611f8857600080fd5b611cac88828901611a36565b600060208284031215611fa657600080fd5b6119ec8261195b565b634e487b7160e01b600052601160045260246000fd5b60008219821115611fd857611fd8611faf565b500190565b600181811c90821680611ff157607f821691505b6020821081141561201257634e487b7160e01b600052602260045260246000fd5b50919050565b634e487b7160e01b600052603260045260246000fd5b60007fffffffffffffffffffffffffffffffffffffffffffffffffffffffffffffffff82141561206057612060611faf565b5060010190565b60408152600061207a6040830185611d84565b828103602084015261208c8185611d84565b95945050505050565b60006001600160a01b03808816835280871660208401525084604083015283606083015260a060808301526120cd60a0830184611b1a565b979650505050505050565b6000602082840312156120ea57600080fd5b81516119ec816119a1565b600060033d111561210e5760046000803e5060005160e01c5b90565b600060443d101561211f5790565b6040517ffffffffffffffffffffffffffffffffffffffffffffffffffffffffffffffffc803d016004833e81513d67ffffffffffffffff816024840111818411171561216d57505050505090565b82850191508151818111156121855750505050505090565b843d870101602082850101111561219f5750505050505090565b6121ae60208286010187611a09565b509095945050505050565b60006001600160a01b03808816835280871660208401525060a060408301526121e560a0830186611d84565b82810360608401526121f78186611d84565b9050828103608084015261220b8185611b1a565b9897505050505050505056fea2646970667358221220751b33fafbdadf15aa9fa2e257d11d9207b3423d483b37f56a81b7b94bd8e58b64736f6c63430008080033",
  "devdoc": {
    "kind": "dev",
    "methods": {
      "balanceOf(address,uint256)": {
        "details": "See {IERC1155-balanceOf}. Requirements: - `account` cannot be the zero address."
      },
      "balanceOfBatch(address[],uint256[])": {
        "details": "See {IERC1155-balanceOfBatch}. Requirements: - `accounts` and `ids` must have the same length."
      },
      "isApprovedForAll(address,address)": {
        "details": "See {IERC1155-isApprovedForAll}."
      },
      "owner()": {
        "details": "Returns the address of the current owner."
      },
      "renounceOwnership()": {
        "details": "Leaves the contract without owner. It will not be possible to call `onlyOwner` functions anymore. Can only be called by the current owner. NOTE: Renouncing ownership will leave the contract without an owner, thereby removing any functionality that is only available to the owner."
      },
      "safeBatchTransferFrom(address,address,uint256[],uint256[],bytes)": {
        "details": "See {IERC1155-safeBatchTransferFrom}."
      },
      "safeTransferFrom(address,address,uint256,uint256,bytes)": {
        "details": "See {IERC1155-safeTransferFrom}."
      },
      "setApprovalForAll(address,bool)": {
        "details": "See {IERC1155-setApprovalForAll}."
      },
      "supportsInterface(bytes4)": {
        "details": "See {IERC165-supportsInterface}."
      },
      "transferOwnership(address)": {
        "details": "Transfers ownership of the contract to a new account (`newOwner`). Can only be called by the current owner."
      },
      "uri(uint256)": {
        "details": "See {IERC1155MetadataURI-uri}. This implementation returns the same URI for *all* token types. It relies on the token type ID substitution mechanism https://eips.ethereum.org/EIPS/eip-1155#metadata[defined in the EIP]. Clients calling this function must replace the `\\{id\\}` substring with the actual token type ID."
      }
    },
    "version": 1
  },
  "userdoc": {
    "kind": "user",
    "methods": {},
    "version": 1
  },
  "storageLayout": {
    "storage": [
      {
        "astId": 10119,
        "contract": "contracts/tokens/RankToken.sol:RankToken",
        "label": "_balances",
        "offset": 0,
        "slot": "0",
        "type": "t_mapping(t_uint256,t_mapping(t_address,t_uint256))"
      },
      {
        "astId": 10125,
        "contract": "contracts/tokens/RankToken.sol:RankToken",
        "label": "_operatorApprovals",
        "offset": 0,
        "slot": "1",
        "type": "t_mapping(t_address,t_mapping(t_address,t_bool))"
      },
      {
        "astId": 10127,
        "contract": "contracts/tokens/RankToken.sol:RankToken",
        "label": "_uri",
        "offset": 0,
        "slot": "2",
        "type": "t_string_storage"
      },
      {
        "astId": 9920,
        "contract": "contracts/tokens/RankToken.sol:RankToken",
        "label": "_owner",
        "offset": 0,
        "slot": "3",
        "type": "t_address"
      }
    ],
    "types": {
      "t_address": {
        "encoding": "inplace",
        "label": "address",
        "numberOfBytes": "20"
      },
      "t_bool": {
        "encoding": "inplace",
        "label": "bool",
        "numberOfBytes": "1"
      },
      "t_mapping(t_address,t_bool)": {
        "encoding": "mapping",
        "key": "t_address",
        "label": "mapping(address => bool)",
        "numberOfBytes": "32",
        "value": "t_bool"
      },
      "t_mapping(t_address,t_mapping(t_address,t_bool))": {
        "encoding": "mapping",
        "key": "t_address",
        "label": "mapping(address => mapping(address => bool))",
        "numberOfBytes": "32",
        "value": "t_mapping(t_address,t_bool)"
      },
      "t_mapping(t_address,t_uint256)": {
        "encoding": "mapping",
        "key": "t_address",
        "label": "mapping(address => uint256)",
        "numberOfBytes": "32",
        "value": "t_uint256"
      },
      "t_mapping(t_uint256,t_mapping(t_address,t_uint256))": {
        "encoding": "mapping",
        "key": "t_uint256",
        "label": "mapping(uint256 => mapping(address => uint256))",
        "numberOfBytes": "32",
        "value": "t_mapping(t_address,t_uint256)"
      },
      "t_string_storage": {
        "encoding": "bytes",
        "label": "string",
        "numberOfBytes": "32"
      },
      "t_uint256": {
        "encoding": "inplace",
        "label": "uint256",
        "numberOfBytes": "32"
      }
    }
  }
}