{
  "address": "0x9F166357ed9D20011c592722E8E0AcadFD6b7E72",
  "abi": [
    {
      "anonymous": false,
      "inputs": [
        {
          "indexed": true,
          "internalType": "uint256",
          "name": "gameId",
          "type": "uint256"
        },
        {
          "components": [
            {
              "components": [
                {
                  "internalType": "uint256",
                  "name": "have",
                  "type": "uint256"
                },
                {
                  "internalType": "uint256",
                  "name": "lock",
                  "type": "uint256"
                },
                {
                  "internalType": "uint256",
                  "name": "burn",
                  "type": "uint256"
                },
                {
                  "internalType": "uint256",
                  "name": "pay",
                  "type": "uint256"
                },
                {
                  "internalType": "uint256",
                  "name": "bet",
                  "type": "uint256"
                }
              ],
              "internalType": "struct LibCoinVending.NumericCondition",
              "name": "ethValues",
              "type": "tuple"
            },
            {
              "components": [
                {
                  "internalType": "address",
                  "name": "contractAddress",
                  "type": "address"
                },
                {
                  "internalType": "uint256",
                  "name": "contractId",
                  "type": "uint256"
                },
                {
                  "internalType": "enum LibCoinVending.ContractTypes",
                  "name": "contractType",
                  "type": "uint8"
                },
                {
                  "components": [
                    {
                      "components": [
                        {
                          "internalType": "bytes",
                          "name": "data",
                          "type": "bytes"
                        },
                        {
                          "internalType": "uint256",
                          "name": "amount",
                          "type": "uint256"
                        }
                      ],
                      "internalType": "struct LibCoinVending.TransactionProperties",
                      "name": "have",
                      "type": "tuple"
                    },
                    {
                      "components": [
                        {
                          "internalType": "bytes",
                          "name": "data",
                          "type": "bytes"
                        },
                        {
                          "internalType": "uint256",
                          "name": "amount",
                          "type": "uint256"
                        }
                      ],
                      "internalType": "struct LibCoinVending.TransactionProperties",
                      "name": "lock",
                      "type": "tuple"
                    },
                    {
                      "components": [
                        {
                          "internalType": "bytes",
                          "name": "data",
                          "type": "bytes"
                        },
                        {
                          "internalType": "uint256",
                          "name": "amount",
                          "type": "uint256"
                        }
                      ],
                      "internalType": "struct LibCoinVending.TransactionProperties",
                      "name": "burn",
                      "type": "tuple"
                    },
                    {
                      "components": [
                        {
                          "internalType": "bytes",
                          "name": "data",
                          "type": "bytes"
                        },
                        {
                          "internalType": "uint256",
                          "name": "amount",
                          "type": "uint256"
                        }
                      ],
                      "internalType": "struct LibCoinVending.TransactionProperties",
                      "name": "pay",
                      "type": "tuple"
                    },
                    {
                      "components": [
                        {
                          "internalType": "bytes",
                          "name": "data",
                          "type": "bytes"
                        },
                        {
                          "internalType": "uint256",
                          "name": "amount",
                          "type": "uint256"
                        }
                      ],
                      "internalType": "struct LibCoinVending.TransactionProperties",
                      "name": "bet",
                      "type": "tuple"
                    }
                  ],
                  "internalType": "struct LibCoinVending.ContractCondition",
                  "name": "contractRequirement",
                  "type": "tuple"
                }
              ],
              "internalType": "struct LibCoinVending.configSmartRequirement[]",
              "name": "contracts",
              "type": "tuple[]"
            }
          ],
          "indexed": false,
          "internalType": "struct LibCoinVending.ConfigPosition",
          "name": "config",
          "type": "tuple"
        }
      ],
      "name": "RequirementsConfigured",
      "type": "event"
    },
    {
      "inputs": [
        {
          "internalType": "uint256",
          "name": "gameId",
          "type": "uint256"
        }
      ],
      "name": "getJoinRequirements",
      "outputs": [
        {
          "components": [
            {
              "components": [
                {
                  "internalType": "uint256",
                  "name": "have",
                  "type": "uint256"
                },
                {
                  "internalType": "uint256",
                  "name": "lock",
                  "type": "uint256"
                },
                {
                  "internalType": "uint256",
                  "name": "burn",
                  "type": "uint256"
                },
                {
                  "internalType": "uint256",
                  "name": "pay",
                  "type": "uint256"
                },
                {
                  "internalType": "uint256",
                  "name": "bet",
                  "type": "uint256"
                }
              ],
              "internalType": "struct LibCoinVending.NumericCondition",
              "name": "ethValues",
              "type": "tuple"
            },
            {
              "internalType": "uint256",
              "name": "timesRefunded",
              "type": "uint256"
            },
            {
              "internalType": "uint256",
              "name": "timesReleased",
              "type": "uint256"
            },
            {
              "internalType": "uint256",
              "name": "timesFunded",
              "type": "uint256"
            },
            {
              "internalType": "address[]",
              "name": "contractAddresses",
              "type": "address[]"
            },
            {
              "internalType": "uint256[]",
              "name": "contractIds",
              "type": "uint256[]"
            },
            {
              "internalType": "enum LibCoinVending.ContractTypes[]",
              "name": "contractTypes",
              "type": "uint8[]"
            },
            {
              "internalType": "bool",
              "name": "_isConfigured",
              "type": "bool"
            }
          ],
          "internalType": "struct LibCoinVending.ConditionReturn",
          "name": "",
          "type": "tuple"
        }
      ],
      "stateMutability": "view",
      "type": "function"
    },
    {
      "inputs": [
        {
          "internalType": "uint256",
          "name": "gameId",
          "type": "uint256"
        },
        {
          "internalType": "address",
          "name": "contractAddress",
          "type": "address"
        },
        {
          "internalType": "uint256",
          "name": "contractId",
          "type": "uint256"
        },
        {
          "internalType": "enum LibCoinVending.ContractTypes",
          "name": "contractType",
          "type": "uint8"
        }
      ],
      "name": "getJoinRequirementsByToken",
      "outputs": [
        {
          "components": [
            {
              "components": [
                {
                  "internalType": "bytes",
                  "name": "data",
                  "type": "bytes"
                },
                {
                  "internalType": "uint256",
                  "name": "amount",
                  "type": "uint256"
                }
              ],
              "internalType": "struct LibCoinVending.TransactionProperties",
              "name": "have",
              "type": "tuple"
            },
            {
              "components": [
                {
                  "internalType": "bytes",
                  "name": "data",
                  "type": "bytes"
                },
                {
                  "internalType": "uint256",
                  "name": "amount",
                  "type": "uint256"
                }
              ],
              "internalType": "struct LibCoinVending.TransactionProperties",
              "name": "lock",
              "type": "tuple"
            },
            {
              "components": [
                {
                  "internalType": "bytes",
                  "name": "data",
                  "type": "bytes"
                },
                {
                  "internalType": "uint256",
                  "name": "amount",
                  "type": "uint256"
                }
              ],
              "internalType": "struct LibCoinVending.TransactionProperties",
              "name": "burn",
              "type": "tuple"
            },
            {
              "components": [
                {
                  "internalType": "bytes",
                  "name": "data",
                  "type": "bytes"
                },
                {
                  "internalType": "uint256",
                  "name": "amount",
                  "type": "uint256"
                }
              ],
              "internalType": "struct LibCoinVending.TransactionProperties",
              "name": "pay",
              "type": "tuple"
            },
            {
              "components": [
                {
                  "internalType": "bytes",
                  "name": "data",
                  "type": "bytes"
                },
                {
                  "internalType": "uint256",
                  "name": "amount",
                  "type": "uint256"
                }
              ],
              "internalType": "struct LibCoinVending.TransactionProperties",
              "name": "bet",
              "type": "tuple"
            }
          ],
          "internalType": "struct LibCoinVending.ContractCondition",
          "name": "",
          "type": "tuple"
        }
      ],
      "stateMutability": "view",
      "type": "function"
    },
    {
      "inputs": [
        {
          "internalType": "uint256",
          "name": "gameId",
          "type": "uint256"
        },
        {
          "components": [
            {
              "components": [
                {
                  "internalType": "uint256",
                  "name": "have",
                  "type": "uint256"
                },
                {
                  "internalType": "uint256",
                  "name": "lock",
                  "type": "uint256"
                },
                {
                  "internalType": "uint256",
                  "name": "burn",
                  "type": "uint256"
                },
                {
                  "internalType": "uint256",
                  "name": "pay",
                  "type": "uint256"
                },
                {
                  "internalType": "uint256",
                  "name": "bet",
                  "type": "uint256"
                }
              ],
              "internalType": "struct LibCoinVending.NumericCondition",
              "name": "ethValues",
              "type": "tuple"
            },
            {
              "components": [
                {
                  "internalType": "address",
                  "name": "contractAddress",
                  "type": "address"
                },
                {
                  "internalType": "uint256",
                  "name": "contractId",
                  "type": "uint256"
                },
                {
                  "internalType": "enum LibCoinVending.ContractTypes",
                  "name": "contractType",
                  "type": "uint8"
                },
                {
                  "components": [
                    {
                      "components": [
                        {
                          "internalType": "bytes",
                          "name": "data",
                          "type": "bytes"
                        },
                        {
                          "internalType": "uint256",
                          "name": "amount",
                          "type": "uint256"
                        }
                      ],
                      "internalType": "struct LibCoinVending.TransactionProperties",
                      "name": "have",
                      "type": "tuple"
                    },
                    {
                      "components": [
                        {
                          "internalType": "bytes",
                          "name": "data",
                          "type": "bytes"
                        },
                        {
                          "internalType": "uint256",
                          "name": "amount",
                          "type": "uint256"
                        }
                      ],
                      "internalType": "struct LibCoinVending.TransactionProperties",
                      "name": "lock",
                      "type": "tuple"
                    },
                    {
                      "components": [
                        {
                          "internalType": "bytes",
                          "name": "data",
                          "type": "bytes"
                        },
                        {
                          "internalType": "uint256",
                          "name": "amount",
                          "type": "uint256"
                        }
                      ],
                      "internalType": "struct LibCoinVending.TransactionProperties",
                      "name": "burn",
                      "type": "tuple"
                    },
                    {
                      "components": [
                        {
                          "internalType": "bytes",
                          "name": "data",
                          "type": "bytes"
                        },
                        {
                          "internalType": "uint256",
                          "name": "amount",
                          "type": "uint256"
                        }
                      ],
                      "internalType": "struct LibCoinVending.TransactionProperties",
                      "name": "pay",
                      "type": "tuple"
                    },
                    {
                      "components": [
                        {
                          "internalType": "bytes",
                          "name": "data",
                          "type": "bytes"
                        },
                        {
                          "internalType": "uint256",
                          "name": "amount",
                          "type": "uint256"
                        }
                      ],
                      "internalType": "struct LibCoinVending.TransactionProperties",
                      "name": "bet",
                      "type": "tuple"
                    }
                  ],
                  "internalType": "struct LibCoinVending.ContractCondition",
                  "name": "contractRequirement",
                  "type": "tuple"
                }
              ],
              "internalType": "struct LibCoinVending.configSmartRequirement[]",
              "name": "contracts",
              "type": "tuple[]"
            }
          ],
          "internalType": "struct LibCoinVending.ConfigPosition",
          "name": "config",
          "type": "tuple"
        }
      ],
      "name": "setJoinRequirements",
      "outputs": [],
      "stateMutability": "nonpayable",
      "type": "function"
    }
  ],
  "transactionHash": "0xd30d5a0f48b1272b05ec08279e65b8efcb558e142b8078bc324f2dcc4e59f488",
  "args": [],
  "numDeployments": 6,
  "solcInputHash": "7e6730544421ae7605100198573e9f77",
  "bytecode": "0x608060405234801561001057600080fd5b50611a72806100206000396000f3fe608060405234801561001057600080fd5b50600436106100415760003560e01c80638f298b2a14610046578063bbb294f81461006f578063bf0f2d7e14610084575b600080fd5b6100596100543660046111aa565b6100a4565b60405161006691906112cc565b60405180910390f35b61008261007d366004611605565b6100c1565b005b6100976100923660046116ce565b610119565b60405161006691906117ca565b6100ac610f82565b6100b885858585610130565b95945050505050565b6100ca82610561565b6100d3826105dd565b6100dd82826106dd565b817fcf4865028c280be4f5db8efbf51379eace06ea78a59dad8020a2ac3593b33fbb8260405161010d91906118a2565b60405180910390a25050565b61012161102c565b61012a82610b4e565b92915050565b610138610f82565b600061018d8660408051602080820193909352815180820384018152908201825280519083012060009081527fb12a0409539e5fa777ebbd0648c2d35d1b56f5385885518278a66364324a9138909252902090565b90508060008460028111156101a4576101a461175b565b60028111156101b5576101b561175b565b8152602080820192909252604090810160009081206001600160a01b0389168252835281812087825290925290819020815160e081019092528054829060a082019083908290829061020690611984565b80601f016020809104026020016040519081016040528092919081815260200182805461023290611984565b801561027f5780601f106102545761010080835404028352916020019161027f565b820191906000526020600020905b81548152906001019060200180831161026257829003601f168201915b505050505081526020016001820154815250508152602001600282016040518060400160405290816000820180546102b690611984565b80601f01602080910402602001604051908101604052809291908181526020018280546102e290611984565b801561032f5780601f106103045761010080835404028352916020019161032f565b820191906000526020600020905b81548152906001019060200180831161031257829003601f168201915b5050505050815260200160018201548152505081526020016004820160405180604001604052908160008201805461036690611984565b80601f016020809104026020016040519081016040528092919081815260200182805461039290611984565b80156103df5780601f106103b4576101008083540402835291602001916103df565b820191906000526020600020905b8154815290600101906020018083116103c257829003601f168201915b5050505050815260200160018201548152505081526020016006820160405180604001604052908160008201805461041690611984565b80601f016020809104026020016040519081016040528092919081815260200182805461044290611984565b801561048f5780601f106104645761010080835404028352916020019161048f565b820191906000526020600020905b81548152906001019060200180831161047257829003601f168201915b505050505081526020016001820154815250508152602001600882016040518060400160405290816000820180546104c690611984565b80601f01602080910402602001604051908101604052809291908181526020018280546104f290611984565b801561053f5780601f106105145761010080835404028352916020019161053f565b820191906000526020600020905b81548152906001019060200180831161052257829003601f168201915b5050505050815260200160018201548152505081525050915050949350505050565b61056a81610d6c565b600061057582610dc9565b60018101549091506001600160a01b031633146105d95760405162461bcd60e51b815260206004820152601160248201527f4f6e6c792067616d652063726561746f7200000000000000000000000000000060448201526064015b60405180910390fd5b5050565b6105e681610e04565b156106595760405162461bcd60e51b815260206004820152602360248201527f43616e6e6f7420646f207768656e20726567697374726174696f6e206973206f60448201527f70656e000000000000000000000000000000000000000000000000000000000060648201526084016105d0565b60008181527f91591bea3fc8863c74b4740fa2dfd9fd428a1e509b60555e4d1e8d8028901f33602052604090206004015460ff16156106da5760405162461bcd60e51b815260206004820152601b60248201527f43616e6e6f7420646f207768656e2067616d652073746172746564000000000060448201526064016105d0565b50565b60006107328360408051602080820193909352815180820384018152908201825280519083012060009081527fb12a0409539e5fa777ebbd0648c2d35d1b56f5385885518278a66364324a9138909252902090565b905080600801546000148061075d57508060070154816006015461075691906119d5565b8160080154145b6107cf5760405162461bcd60e51b815260206004820152603660248201527f43616e6e6f74206d757461746520706f736974696f6e2077697468206375727260448201527f656e746c7920706f7369746976652062616c616e63650000000000000000000060648201526084016105d0565b81518051600183015560208101516002830155604081015160038301556060810151600483015560800151600582015561080d600a820160006110a3565b61081b600b820160006110a3565b6108296009820160006110c1565b60005b826020015151811015610b3b5781600a0183602001518281518110610853576108536119ed565b60209081029190910181015151825460018101845560009384529282902090920180547fffffffffffffffffffffffff0000000000000000000000000000000000000000166001600160a01b03909316929092179091558301518051600b84019190839081106108c5576108c56119ed565b602090810291909101810151810151825460018101845560009384529282902090920191909155830151805160098401919083908110610907576109076119ed565b60209081029190910181015160400151825460018101845560009384529282902091830490910180549192909160ff601f9092166101000a9182021916908360028111156109575761095761175b565b021790555082602001518181518110610972576109726119ed565b6020026020010151606001518260000160008560200151848151811061099a5761099a6119ed565b60200260200101516040015160028111156109b7576109b761175b565b60028111156109c8576109c861175b565b81526020019081526020016000206000856020015184815181106109ee576109ee6119ed565b6020026020010151600001516001600160a01b03166001600160a01b03168152602001908152602001600020600085602001518481518110610a3257610a326119ed565b60200260200101516020015181526020019081526020016000206000820151816000016000820151816000019080519060200190610a719291906110e6565b50602091820151600190910155828101518051805191926002850192610a9a92849201906110e6565b5060209182015160019091015560408301518051805191926004850192610ac492849201906110e6565b5060209182015160019091015560608301518051805191926006850192610aee92849201906110e6565b5060209182015160019091015560808301518051805191926008850192610b1892849201906110e6565b506020820151816001015550509050508080610b3390611a03565b91505061082c565b50600c01805460ff191660011790555050565b610b5661102c565b6000610bab8360408051602080820193909352815180820384018152908201825280519083012060009081527fb12a0409539e5fa777ebbd0648c2d35d1b56f5385885518278a66364324a9138909252902090565b9050610bb561102c565b6040805160a081018252600184015481526002840154602080830191909152600385015482840152600485015460608084019190915260058601546080840152918452600885015491840191909152600684015483820152600784015483830152600c84015460ff16151560e0840152600a840180548351818402810184019094528084529091830182828015610c7557602002820191906000526020600020905b81546001600160a01b03168152600190910190602001808311610c57575b5050505050816080018190525081600b01805480602002602001604051908101604052809291908181526020018280548015610cd057602002820191906000526020600020905b815481526020019060010190808311610cbc575b50505050508160a0018190525081600901805480602002602001604051908101604052809291908181526020018280548015610d5b57602002820191906000526020600020906000905b82829054906101000a900460ff166002811115610d3957610d3961175b565b815260206001928301818104948501949093039092029101808411610d1a5790505b505050505060c08201529392505050565b610d74610e91565b610d7d81610f0a565b6106da5760405162461bcd60e51b815260206004820152600d60248201527f6e6f2067616d6520666f756e640000000000000000000000000000000000000060448201526064016105d0565b60008181527f91591bea3fc8863c74b4740fa2dfd9fd428a1e509b60555e4d1e8d8028901f3360205260408120600a015481905b9392505050565b60008181527f91591bea3fc8863c74b4740fa2dfd9fd428a1e509b60555e4d1e8d8028901f336020526040812060038101547f91591bea3fc8863c74b4740fa2dfd9fd428a1e509b60555e4d1e8d8028901f2d90610e66575060009392505050565b6003810154610e7590436119d5565b826003015410610e86576000610e89565b60015b949350505050565b6000610e9b610f59565b600381015490915074010000000000000000000000000000000000000000900460ff166106da5760405162461bcd60e51b815260206004820152600f60248201527f6f6e6c79496e697469616c697a6564000000000000000000000000000000000060448201526064016105d0565b60008181527f91591bea3fc8863c74b4740fa2dfd9fd428a1e509b60555e4d1e8d8028901f336020526040812080546001600160a01b031615610f505750600192915050565b50600092915050565b6000807f7acf15cdb85906c3736403f86bf7ccb69a25bb6dbdcde1cbcbf35fe2a64df85261012a565b6040805160e08101909152606060a08201908152600060c083015281908152602001610fc1604051806040016040528060608152602001600081525090565b8152602001610fe3604051806040016040528060608152602001600081525090565b8152602001611005604051806040016040528060608152602001600081525090565b8152602001611027604051806040016040528060608152602001600081525090565b905290565b60405180610100016040528061106a6040518060a0016040528060008152602001600081526020016000815260200160008152602001600081525090565b81526020016000815260200160008152602001600081526020016060815260200160608152602001606081526020016000151581525090565b50805460008255906000526020600020908101906106da919061116a565b50805460008255601f0160209004906000526020600020908101906106da919061116a565b8280546110f290611984565b90600052602060002090601f016020900481019282611114576000855561115a565b82601f1061112d57805160ff191683800117855561115a565b8280016001018555821561115a579182015b8281111561115a57825182559160200191906001019061113f565b5061116692915061116a565b5090565b5b80821115611166576000815560010161116b565b80356001600160a01b038116811461119657600080fd5b919050565b80356003811061119657600080fd5b600080600080608085870312156111c057600080fd5b843593506111d06020860161117f565b9250604085013591506111e56060860161119b565b905092959194509250565b6000815160408452805180604086015260005b818110156112205760208184018101516060888401015201611203565b81811115611232576000606083880101525b50602093840151938501939093525050601f01601f19160160600190565b6000815160a0845261126560a08501826111f0565b90506020830151848203602086015261127e82826111f0565b9150506040830151848203604086015261129882826111f0565b915050606083015184820360608601526112b282826111f0565b915050608083015184820360808601526100b882826111f0565b602081526000610dfd6020830184611250565b634e487b7160e01b600052604160045260246000fd5b6040805190810167ffffffffffffffff81118282101715611318576113186112df565b60405290565b6040516080810167ffffffffffffffff81118282101715611318576113186112df565b60405160a0810167ffffffffffffffff81118282101715611318576113186112df565b604051601f8201601f1916810167ffffffffffffffff8111828210171561138d5761138d6112df565b604052919050565b6000604082840312156113a757600080fd5b6113af6112f5565b9050813567ffffffffffffffff808211156113c957600080fd5b818401915084601f8301126113dd57600080fd5b81356020828211156113f1576113f16112df565b61140381601f19601f85011601611364565b9250818352868183860101111561141957600080fd5b8181850182850137600081838501015282855280860135818601525050505092915050565b600082601f83011261144f57600080fd5b8135602067ffffffffffffffff8083111561146c5761146c6112df565b8260051b61147b838201611364565b938452858101830193838101908886111561149557600080fd5b84880192505b858310156115f9578235848111156114b257600080fd5b8801601f196080828c03820112156114c957600080fd5b6114d161131e565b6114dc88840161117f565b815260408301358882015260606114f481850161119b565b604083015260808401358881111561150b57600080fd5b939093019260a0848e038401121561152257600080fd5b61152a611341565b9250888401358881111561153d57600080fd5b61154b8e8b83880101611395565b84525060408401358881111561156057600080fd5b61156e8e8b83880101611395565b8a85015250808401358881111561158457600080fd5b6115928e8b83880101611395565b6040850152506080840135888111156115aa57600080fd5b6115b88e8b83880101611395565b828501525060a0840135888111156115cf57600080fd5b6115dd8e8b83880101611395565b608085015250810191909152835250918401919084019061149b565b98975050505050505050565b6000806040838503121561161857600080fd5b82359150602083013567ffffffffffffffff8082111561163757600080fd5b9084019081860360c081121561164c57600080fd5b6116546112f5565b60a082121561166257600080fd5b61166a611341565b9150833582526020840135602083015260408401356040830152606084013560608301526080840135608083015281815260a08401359150828211156116af57600080fd5b6116bb8883860161143e565b6020820152809450505050509250929050565b6000602082840312156116e057600080fd5b5035919050565b600081518084526020808501945080840160005b838110156117205781516001600160a01b0316875295820195908201906001016116fb565b509495945050505050565b600081518084526020808501945080840160005b838110156117205781518752958201959082019060010161173f565b634e487b7160e01b600052602160045260246000fd5b6003811061178f57634e487b7160e01b600052602160045260246000fd5b9052565b600081518084526020808501945080840160005b83811015611720576117ba878351611771565b95820195908201906001016117a7565b6020815261180760208201835180518252602081015160208301526040810151604083015260608101516060830152608081015160808301525050565b602082015160c0820152604082015160e0820152606082015161010082015260006080830151610180806101208501526118456101a08501836116e7565b915060a0850151601f198086850301610140870152611864848361172b565b935060c087015191508086850301610160870152506118838382611793565b92505060e08501516118988286018215159052565b5090949350505050565b6000602080835260e083016118e5828501865180518252602081015160208301526040810151604083015260608101516060830152608081015160808301525050565b8185015160c085810152805191829052610100600583901b8601810192918401919086019060005b818110156119775760ff19888603018352835160806001600160a01b0382511687528782015188880152604080830151611949828a0182611771565b505060609182015191870181905261196387820183611250565b96505050928501929185019160010161190d565b5092979650505050505050565b600181811c9082168061199857607f821691505b602082108114156119b957634e487b7160e01b600052602260045260246000fd5b50919050565b634e487b7160e01b600052601160045260246000fd5b600082198211156119e8576119e86119bf565b500190565b634e487b7160e01b600052603260045260246000fd5b60007fffffffffffffffffffffffffffffffffffffffffffffffffffffffffffffffff821415611a3557611a356119bf565b506001019056fea264697066735822122074509f2f0d4cd81e317875e061dca63d62837aebec1e18162c118f44af41262c64736f6c63430008080033",
  "devdoc": {
    "kind": "dev",
    "methods": {},
    "version": 1
  },
  "userdoc": {
    "kind": "user",
    "methods": {},
    "version": 1
  },
  "storageLayout": {
    "storage": [],
    "types": null
  }
}