{
  "address": "0x41335cf61D8829eb30308eC5b73Dc0CAE53086c2",
  "abi": [
    {
      "inputs": [
        {
          "internalType": "string",
          "name": "uri_",
          "type": "string"
        },
        {
          "internalType": "address",
          "name": "owner",
          "type": "address"
        }
      ],
      "stateMutability": "nonpayable",
      "type": "constructor"
    },
    {
      "anonymous": false,
      "inputs": [
        {
          "indexed": true,
          "internalType": "address",
          "name": "account",
          "type": "address"
        },
        {
          "indexed": true,
          "internalType": "address",
          "name": "operator",
          "type": "address"
        },
        {
          "indexed": false,
          "internalType": "bool",
          "name": "approved",
          "type": "bool"
        }
      ],
      "name": "ApprovalForAll",
      "type": "event"
    },
    {
      "anonymous": false,
      "inputs": [
        {
          "indexed": true,
          "internalType": "address",
          "name": "previousOwner",
          "type": "address"
        },
        {
          "indexed": true,
          "internalType": "address",
          "name": "newOwner",
          "type": "address"
        }
      ],
      "name": "OwnershipTransferred",
      "type": "event"
    },
    {
      "anonymous": false,
      "inputs": [
        {
          "indexed": true,
          "internalType": "address",
          "name": "operator",
          "type": "address"
        },
        {
          "indexed": true,
          "internalType": "address",
          "name": "from",
          "type": "address"
        },
        {
          "indexed": true,
          "internalType": "address",
          "name": "to",
          "type": "address"
        },
        {
          "indexed": false,
          "internalType": "uint256[]",
          "name": "ids",
          "type": "uint256[]"
        },
        {
          "indexed": false,
          "internalType": "uint256[]",
          "name": "values",
          "type": "uint256[]"
        }
      ],
      "name": "TransferBatch",
      "type": "event"
    },
    {
      "anonymous": false,
      "inputs": [
        {
          "indexed": true,
          "internalType": "address",
          "name": "operator",
          "type": "address"
        },
        {
          "indexed": true,
          "internalType": "address",
          "name": "from",
          "type": "address"
        },
        {
          "indexed": true,
          "internalType": "address",
          "name": "to",
          "type": "address"
        },
        {
          "indexed": false,
          "internalType": "uint256",
          "name": "id",
          "type": "uint256"
        },
        {
          "indexed": false,
          "internalType": "uint256",
          "name": "value",
          "type": "uint256"
        }
      ],
      "name": "TransferSingle",
      "type": "event"
    },
    {
      "anonymous": false,
      "inputs": [
        {
          "indexed": false,
          "internalType": "string",
          "name": "value",
          "type": "string"
        },
        {
          "indexed": true,
          "internalType": "uint256",
          "name": "id",
          "type": "uint256"
        }
      ],
      "name": "URI",
      "type": "event"
    },
    {
      "inputs": [
        {
          "internalType": "address",
          "name": "account",
          "type": "address"
        },
        {
          "internalType": "uint256",
          "name": "id",
          "type": "uint256"
        }
      ],
      "name": "balanceOf",
      "outputs": [
        {
          "internalType": "uint256",
          "name": "",
          "type": "uint256"
        }
      ],
      "stateMutability": "view",
      "type": "function"
    },
    {
      "inputs": [
        {
          "internalType": "address[]",
          "name": "accounts",
          "type": "address[]"
        },
        {
          "internalType": "uint256[]",
          "name": "ids",
          "type": "uint256[]"
        }
      ],
      "name": "balanceOfBatch",
      "outputs": [
        {
          "internalType": "uint256[]",
          "name": "",
          "type": "uint256[]"
        }
      ],
      "stateMutability": "view",
      "type": "function"
    },
    {
      "inputs": [
        {
          "internalType": "address",
          "name": "to",
          "type": "address"
        },
        {
          "internalType": "uint256[]",
          "name": "ids",
          "type": "uint256[]"
        },
        {
          "internalType": "uint256[]",
          "name": "amounts",
          "type": "uint256[]"
        },
        {
          "internalType": "bytes",
          "name": "data",
          "type": "bytes"
        }
      ],
      "name": "batchMint",
      "outputs": [],
      "stateMutability": "nonpayable",
      "type": "function"
    },
    {
      "inputs": [
        {
          "internalType": "address",
          "name": "account",
          "type": "address"
        },
        {
          "internalType": "uint256",
          "name": "id",
          "type": "uint256"
        },
        {
          "internalType": "uint256",
          "name": "value",
          "type": "uint256"
        }
      ],
      "name": "burn",
      "outputs": [],
      "stateMutability": "nonpayable",
      "type": "function"
    },
    {
      "inputs": [
        {
          "internalType": "address",
          "name": "account",
          "type": "address"
        },
        {
          "internalType": "uint256[]",
          "name": "ids",
          "type": "uint256[]"
        },
        {
          "internalType": "uint256[]",
          "name": "values",
          "type": "uint256[]"
        }
      ],
      "name": "burnBatch",
      "outputs": [],
      "stateMutability": "nonpayable",
      "type": "function"
    },
    {
      "inputs": [
        {
          "internalType": "address",
          "name": "account",
          "type": "address"
        },
        {
          "internalType": "address",
          "name": "operator",
          "type": "address"
        }
      ],
      "name": "isApprovedForAll",
      "outputs": [
        {
          "internalType": "bool",
          "name": "",
          "type": "bool"
        }
      ],
      "stateMutability": "view",
      "type": "function"
    },
    {
      "inputs": [
        {
          "internalType": "address",
          "name": "to",
          "type": "address"
        },
        {
          "internalType": "uint256",
          "name": "id",
          "type": "uint256"
        },
        {
          "internalType": "bytes",
          "name": "data",
          "type": "bytes"
        }
      ],
      "name": "levelUp",
      "outputs": [],
      "stateMutability": "nonpayable",
      "type": "function"
    },
    {
      "inputs": [
        {
          "internalType": "address",
          "name": "to",
          "type": "address"
        },
        {
          "internalType": "uint256",
          "name": "amount",
          "type": "uint256"
        },
        {
          "internalType": "uint256",
          "name": "poolId",
          "type": "uint256"
        },
        {
          "internalType": "bytes",
          "name": "data",
          "type": "bytes"
        }
      ],
      "name": "mint",
      "outputs": [],
      "stateMutability": "nonpayable",
      "type": "function"
    },
    {
      "inputs": [],
      "name": "owner",
      "outputs": [
        {
          "internalType": "address",
          "name": "",
          "type": "address"
        }
      ],
      "stateMutability": "view",
      "type": "function"
    },
    {
      "inputs": [],
      "name": "renounceOwnership",
      "outputs": [],
      "stateMutability": "nonpayable",
      "type": "function"
    },
    {
      "inputs": [
        {
          "internalType": "address",
          "name": "from",
          "type": "address"
        },
        {
          "internalType": "address",
          "name": "to",
          "type": "address"
        },
        {
          "internalType": "uint256[]",
          "name": "ids",
          "type": "uint256[]"
        },
        {
          "internalType": "uint256[]",
          "name": "amounts",
          "type": "uint256[]"
        },
        {
          "internalType": "bytes",
          "name": "data",
          "type": "bytes"
        }
      ],
      "name": "safeBatchTransferFrom",
      "outputs": [],
      "stateMutability": "nonpayable",
      "type": "function"
    },
    {
      "inputs": [
        {
          "internalType": "address",
          "name": "from",
          "type": "address"
        },
        {
          "internalType": "address",
          "name": "to",
          "type": "address"
        },
        {
          "internalType": "uint256",
          "name": "id",
          "type": "uint256"
        },
        {
          "internalType": "uint256",
          "name": "amount",
          "type": "uint256"
        },
        {
          "internalType": "bytes",
          "name": "data",
          "type": "bytes"
        }
      ],
      "name": "safeTransferFrom",
      "outputs": [],
      "stateMutability": "nonpayable",
      "type": "function"
    },
    {
      "inputs": [
        {
          "internalType": "address",
          "name": "operator",
          "type": "address"
        },
        {
          "internalType": "bool",
          "name": "approved",
          "type": "bool"
        }
      ],
      "name": "setApprovalForAll",
      "outputs": [],
      "stateMutability": "nonpayable",
      "type": "function"
    },
    {
      "inputs": [
        {
          "internalType": "bytes4",
          "name": "interfaceId",
          "type": "bytes4"
        }
      ],
      "name": "supportsInterface",
      "outputs": [
        {
          "internalType": "bool",
          "name": "",
          "type": "bool"
        }
      ],
      "stateMutability": "view",
      "type": "function"
    },
    {
      "inputs": [
        {
          "internalType": "address",
          "name": "newOwner",
          "type": "address"
        }
      ],
      "name": "transferOwnership",
      "outputs": [],
      "stateMutability": "nonpayable",
      "type": "function"
    },
    {
      "inputs": [
        {
          "internalType": "uint256",
          "name": "",
          "type": "uint256"
        }
      ],
      "name": "uri",
      "outputs": [
        {
          "internalType": "string",
          "name": "",
          "type": "string"
        }
      ],
      "stateMutability": "view",
      "type": "function"
    }
  ],
  "transactionHash": "0x94e07283a88c80fd6c77057c132d72f3565c78e754b505eb356d51fa676b0807",
  "args": [
    "ipfs://QmZZaGX1jaMtMpbuU5q7PBqpjqEy8SPLjSbV2HhtFjKtvg",
    "0xCA618ea6Adb914B694E2acF1d77fe92894fbfA30"
  ],
  "numDeployments": 1,
  "bytecode": "0x60806040523480156200001157600080fd5b5060405162002b2538038062002b258339810160408190526200003491620002e7565b816200004081620000c6565b506200004c33620000df565b6001600160a01b038116620000b35760405162461bcd60e51b815260206004820152602260248201527f6d7573742073706563696679206f776e6572206f662074686520636f6e74726160448201526118dd60f21b60648201526084015b60405180910390fd5b620000be8162000131565b505062000415565b8051620000db9060029060208401906200020e565b5050565b600380546001600160a01b038381166001600160a01b0319831681179093556040519116919082907f8be0079c531659141344cd1fd0a4f28419497f9722a3daafe3b4186f6b6457e090600090a35050565b6200013b620001b0565b6001600160a01b038116620001a25760405162461bcd60e51b815260206004820152602660248201527f4f776e61626c653a206e6577206f776e657220697320746865207a65726f206160448201526564647265737360d01b6064820152608401620000aa565b620001ad81620000df565b50565b6003546001600160a01b031633146200020c5760405162461bcd60e51b815260206004820181905260248201527f4f776e61626c653a2063616c6c6572206973206e6f7420746865206f776e65726044820152606401620000aa565b565b8280546200021c90620003d8565b90600052602060002090601f0160209004810192826200024057600085556200028b565b82601f106200025b57805160ff19168380011785556200028b565b828001600101855582156200028b579182015b828111156200028b5782518255916020019190600101906200026e565b50620002999291506200029d565b5090565b5b808211156200029957600081556001016200029e565b634e487b7160e01b600052604160045260246000fd5b80516001600160a01b0381168114620002e257600080fd5b919050565b60008060408385031215620002fb57600080fd5b82516001600160401b03808211156200031357600080fd5b818501915085601f8301126200032857600080fd5b8151818111156200033d576200033d620002b4565b604051601f8201601f19908116603f01168101908382118183101715620003685762000368620002b4565b816040528281526020935088848487010111156200038557600080fd5b600091505b82821015620003a957848201840151818301850152908301906200038a565b82821115620003bb5760008484830101525b9550620003cd915050858201620002ca565b925050509250929050565b600181811c90821680620003ed57607f821691505b602082108114156200040f57634e487b7160e01b600052602260045260246000fd5b50919050565b61270080620004256000396000f3fe608060405234801561001057600080fd5b50600436106100ff5760003560e01c8063731133e911610097578063e985e9c511610066578063e985e9c514610224578063f242432a14610260578063f2fde38b14610273578063f5298aca1461028657600080fd5b8063731133e9146101d05780638da5cb5b146101e3578063a22cb465146101fe578063b48ab8b61461021157600080fd5b80632eb2c2d6116100d35780632eb2c2d6146101825780634e1273f4146101955780636b20c454146101b5578063715018a6146101c857600080fd5b8062fdd58e1461010457806301ffc9a71461012a5780630dbaf77f1461014d5780630e89341c14610162575b600080fd5b610117610112366004611d8d565b610299565b6040519081526020015b60405180910390f35b61013d610138366004611de5565b610342565b6040519015158152602001610121565b61016061015b366004611ec0565b610427565b005b610175610170366004611f17565b610457565b6040516101219190611f7d565b610160610190366004612025565b6104eb565b6101a86101a33660046120cf565b61058d565b60405161012191906121d5565b6101606101c33660046121e8565b6106cb565b610160610764565b6101606101de366004612252565b610778565b6003546040516001600160a01b039091168152602001610121565b61016061020c3660046122b3565b6108f4565b61016061021f3660046122ef565b610903565b61013d61023236600461237c565b6001600160a01b03918216600090815260016020908152604080832093909416825291909152205460ff1690565b61016061026e3660046123af565b610a7b565b610160610281366004612414565b610b16565b61016061029436600461242f565b610ba6565b60006001600160a01b03831661031c5760405162461bcd60e51b815260206004820152602a60248201527f455243313135353a2061646472657373207a65726f206973206e6f742061207660448201527f616c6964206f776e65720000000000000000000000000000000000000000000060648201526084015b60405180910390fd5b506000908152602081815260408083206001600160a01b03949094168352929052205490565b60007fffffffff0000000000000000000000000000000000000000000000000000000082167fd9b67a260000000000000000000000000000000000000000000000000000000014806103d557507fffffffff0000000000000000000000000000000000000000000000000000000082167f0e89341c00000000000000000000000000000000000000000000000000000000145b8061042157507f01ffc9a7000000000000000000000000000000000000000000000000000000007fffffffff000000000000000000000000000000000000000000000000000000008316145b92915050565b61042f610c3f565b61043b83836001610c99565b6104528361044a846001612478565b600184610e4d565b505050565b60606002805461046690612490565b80601f016020809104026020016040519081016040528092919081815260200182805461049290612490565b80156104df5780601f106104b4576101008083540402835291602001916104df565b820191906000526020600020905b8154815290600101906020018083116104c257829003601f168201915b50505050509050919050565b6001600160a01b03851633148061050757506105078533610232565b6105795760405162461bcd60e51b815260206004820152602e60248201527f455243313135353a2063616c6c6572206973206e6f7420746f6b656e206f776e60448201527f6572206f7220617070726f7665640000000000000000000000000000000000006064820152608401610313565b6105868585858585610f74565b5050505050565b606081518351146106065760405162461bcd60e51b815260206004820152602960248201527f455243313135353a206163636f756e747320616e6420696473206c656e67746860448201527f206d69736d6174636800000000000000000000000000000000000000000000006064820152608401610313565b6000835167ffffffffffffffff81111561062257610622611e09565b60405190808252806020026020018201604052801561064b578160200160208202803683370190505b50905060005b84518110156106c35761069685828151811061066f5761066f6124cb565b6020026020010151858381518110610689576106896124cb565b6020026020010151610299565b8282815181106106a8576106a86124cb565b60209081029190910101526106bc816124e1565b9050610651565b509392505050565b6001600160a01b0383163314806106e757506106e78333610232565b6107595760405162461bcd60e51b815260206004820152602e60248201527f455243313135353a2063616c6c6572206973206e6f7420746f6b656e206f776e60448201527f6572206f7220617070726f7665640000000000000000000000000000000000006064820152608401610313565b6104528383836111fd565b61076c610c3f565b6107766000611473565b565b610780610c3f565b6001600160a01b0384166107fc5760405162461bcd60e51b815260206004820152602860248201527f4d6f636b455243313135352d3e6d696e743a2041646472657373206e6f74207360448201527f70656369666965640000000000000000000000000000000000000000000000006064820152608401610313565b8261086f5760405162461bcd60e51b815260206004820152602760248201527f4d6f636b455243313135352d3e6d696e743a20616d6f756e74206e6f7420737060448201527f65636966696564000000000000000000000000000000000000000000000000006064820152608401610313565b816108e25760405162461bcd60e51b815260206004820152602860248201527f4d6f636b455243313135352d3e6d696e743a20706f6f6c206964206e6f74207360448201527f70656369666965640000000000000000000000000000000000000000000000006064820152608401610313565b6108ee84838584610e4d565b50505050565b6108ff3383836114dd565b5050565b61090b610c3f565b6001600160a01b0384166109875760405162461bcd60e51b815260206004820152602d60248201527f4d6f636b455243313135352d3e62617463684d696e743a20416464726573732060448201527f6e6f7420737065636966696564000000000000000000000000000000000000006064820152608401610313565b81516109fb5760405162461bcd60e51b815260206004820152602c60248201527f4d6f636b455243313135352d3e62617463684d696e743a20616d6f756e74206e60448201527f6f742073706563696669656400000000000000000000000000000000000000006064820152608401610313565b8251610a6f5760405162461bcd60e51b815260206004820152602d60248201527f4d6f636b455243313135352d3e62617463684d696e743a20706f6f6c2069642060448201527f6e6f7420737065636966696564000000000000000000000000000000000000006064820152608401610313565b6108ee848484846115f0565b6001600160a01b038516331480610a975750610a978533610232565b610b095760405162461bcd60e51b815260206004820152602e60248201527f455243313135353a2063616c6c6572206973206e6f7420746f6b656e206f776e60448201527f6572206f7220617070726f7665640000000000000000000000000000000000006064820152608401610313565b61058685858585856117d2565b610b1e610c3f565b6001600160a01b038116610b9a5760405162461bcd60e51b815260206004820152602660248201527f4f776e61626c653a206e6577206f776e657220697320746865207a65726f206160448201527f64647265737300000000000000000000000000000000000000000000000000006064820152608401610313565b610ba381611473565b50565b6001600160a01b038316331480610bc25750610bc28333610232565b610c345760405162461bcd60e51b815260206004820152602e60248201527f455243313135353a2063616c6c6572206973206e6f7420746f6b656e206f776e60448201527f6572206f7220617070726f7665640000000000000000000000000000000000006064820152608401610313565b610452838383610c99565b6003546001600160a01b031633146107765760405162461bcd60e51b815260206004820181905260248201527f4f776e61626c653a2063616c6c6572206973206e6f7420746865206f776e65726044820152606401610313565b6001600160a01b038316610d155760405162461bcd60e51b815260206004820152602360248201527f455243313135353a206275726e2066726f6d20746865207a65726f206164647260448201527f65737300000000000000000000000000000000000000000000000000000000006064820152608401610313565b336000610d21846119a8565b90506000610d2e846119a8565b60408051602080820183526000918290528882528181528282206001600160a01b038b1683529052205490915084811015610dd05760405162461bcd60e51b8152602060048201526024808201527f455243313135353a206275726e20616d6f756e7420657863656564732062616c60448201527f616e6365000000000000000000000000000000000000000000000000000000006064820152608401610313565b6000868152602081815260408083206001600160a01b038b81168086529184528285208a8703905582518b81529384018a90529092908816917fc3d58168c5ae7397731d063d5bbf3d657854427343f4c083240f7aacaa2d0f62910160405180910390a46040805160208101909152600090525b50505050505050565b6001600160a01b038416610ec95760405162461bcd60e51b815260206004820152602160248201527f455243313135353a206d696e7420746f20746865207a65726f2061646472657360448201527f73000000000000000000000000000000000000000000000000000000000000006064820152608401610313565b336000610ed5856119a8565b90506000610ee2856119a8565b90506000868152602081815260408083206001600160a01b038b16845290915281208054879290610f14908490612478565b909155505060408051878152602081018790526001600160a01b03808a1692600092918716917fc3d58168c5ae7397731d063d5bbf3d657854427343f4c083240f7aacaa2d0f62910160405180910390a4610e44836000898989896119f3565b8151835114610fd65760405162461bcd60e51b815260206004820152602860248201527f455243313135353a2069647320616e6420616d6f756e7473206c656e677468206044820152670dad2e6dac2e8c6d60c31b6064820152608401610313565b6001600160a01b0384166110525760405162461bcd60e51b815260206004820152602560248201527f455243313135353a207472616e7366657220746f20746865207a65726f20616460448201527f64726573730000000000000000000000000000000000000000000000000000006064820152608401610313565b3360005b845181101561118f576000858281518110611073576110736124cb565b602002602001015190506000858381518110611091576110916124cb565b602090810291909101810151600084815280835260408082206001600160a01b038e1683529093529190912054909150818110156111375760405162461bcd60e51b815260206004820152602a60248201527f455243313135353a20696e73756666696369656e742062616c616e636520666f60448201527f72207472616e73666572000000000000000000000000000000000000000000006064820152608401610313565b6000838152602081815260408083206001600160a01b038e8116855292528083208585039055908b16825281208054849290611174908490612478565b9250508190555050505080611188906124e1565b9050611056565b50846001600160a01b0316866001600160a01b0316826001600160a01b03167f4a39dc06d4c0dbc64b70af90fd698a233a518aa5d07e595d983b8c0526c8f7fb87876040516111df92919061251a565b60405180910390a46111f5818787878787611c07565b505050505050565b6001600160a01b0383166112795760405162461bcd60e51b815260206004820152602360248201527f455243313135353a206275726e2066726f6d20746865207a65726f206164647260448201527f65737300000000000000000000000000000000000000000000000000000000006064820152608401610313565b80518251146112db5760405162461bcd60e51b815260206004820152602860248201527f455243313135353a2069647320616e6420616d6f756e7473206c656e677468206044820152670dad2e6dac2e8c6d60c31b6064820152608401610313565b604080516020810190915260009081905233905b835181101561140657600084828151811061130c5761130c6124cb565b60200260200101519050600084838151811061132a5761132a6124cb565b602090810291909101810151600084815280835260408082206001600160a01b038c1683529093529190912054909150818110156113cf5760405162461bcd60e51b8152602060048201526024808201527f455243313135353a206275726e20616d6f756e7420657863656564732062616c60448201527f616e6365000000000000000000000000000000000000000000000000000000006064820152608401610313565b6000928352602083815260408085206001600160a01b038b16865290915290922091039055806113fe816124e1565b9150506112ef565b5060006001600160a01b0316846001600160a01b0316826001600160a01b03167f4a39dc06d4c0dbc64b70af90fd698a233a518aa5d07e595d983b8c0526c8f7fb868660405161145792919061251a565b60405180910390a46040805160208101909152600090526108ee565b600380546001600160a01b038381167fffffffffffffffffffffffff0000000000000000000000000000000000000000831681179093556040519116919082907f8be0079c531659141344cd1fd0a4f28419497f9722a3daafe3b4186f6b6457e090600090a35050565b816001600160a01b0316836001600160a01b031614156115655760405162461bcd60e51b815260206004820152602960248201527f455243313135353a2073657474696e6720617070726f76616c2073746174757360448201527f20666f722073656c6600000000000000000000000000000000000000000000006064820152608401610313565b6001600160a01b0383811660008181526001602090815260408083209487168084529482529182902080547fffffffffffffffffffffffffffffffffffffffffffffffffffffffffffffff001686151590811790915591519182527f17307eab39ab6107e8899845ad3d59bd9653f200f220920489ca2b5937696c31910160405180910390a3505050565b6001600160a01b03841661166c5760405162461bcd60e51b815260206004820152602160248201527f455243313135353a206d696e7420746f20746865207a65726f2061646472657360448201527f73000000000000000000000000000000000000000000000000000000000000006064820152608401610313565b81518351146116ce5760405162461bcd60e51b815260206004820152602860248201527f455243313135353a2069647320616e6420616d6f756e7473206c656e677468206044820152670dad2e6dac2e8c6d60c31b6064820152608401610313565b3360005b845181101561176a578381815181106116ed576116ed6124cb565b602002602001015160008087848151811061170a5761170a6124cb565b602002602001015181526020019081526020016000206000886001600160a01b03166001600160a01b0316815260200190815260200160002060008282546117529190612478565b90915550819050611762816124e1565b9150506116d2565b50846001600160a01b031660006001600160a01b0316826001600160a01b03167f4a39dc06d4c0dbc64b70af90fd698a233a518aa5d07e595d983b8c0526c8f7fb87876040516117bb92919061251a565b60405180910390a461058681600087878787611c07565b6001600160a01b03841661184e5760405162461bcd60e51b815260206004820152602560248201527f455243313135353a207472616e7366657220746f20746865207a65726f20616460448201527f64726573730000000000000000000000000000000000000000000000000000006064820152608401610313565b33600061185a856119a8565b90506000611867856119a8565b90506000868152602081815260408083206001600160a01b038c168452909152902054858110156119005760405162461bcd60e51b815260206004820152602a60248201527f455243313135353a20696e73756666696369656e742062616c616e636520666f60448201527f72207472616e73666572000000000000000000000000000000000000000000006064820152608401610313565b6000878152602081815260408083206001600160a01b038d8116855292528083208985039055908a1682528120805488929061193d908490612478565b909155505060408051888152602081018890526001600160a01b03808b16928c821692918816917fc3d58168c5ae7397731d063d5bbf3d657854427343f4c083240f7aacaa2d0f62910160405180910390a461199d848a8a8a8a8a6119f3565b505050505050505050565b604080516001808252818301909252606091600091906020808301908036833701905050905082816000815181106119e2576119e26124cb565b602090810291909101015292915050565b6001600160a01b0384163b156111f5576040517ff23a6e610000000000000000000000000000000000000000000000000000000081526001600160a01b0385169063f23a6e6190611a509089908990889088908890600401612548565b602060405180830381600087803b158015611a6a57600080fd5b505af1925050508015611a9a575060408051601f3d908101601f19168201909252611a979181019061258b565b60015b611b5057611aa66125a8565b806308c379a01415611ae05750611abb6125c4565b80611ac65750611ae2565b8060405162461bcd60e51b81526004016103139190611f7d565b505b60405162461bcd60e51b815260206004820152603460248201527f455243313135353a207472616e7366657220746f206e6f6e2d4552433131353560448201527f526563656976657220696d706c656d656e7465720000000000000000000000006064820152608401610313565b7fffffffff0000000000000000000000000000000000000000000000000000000081167ff23a6e610000000000000000000000000000000000000000000000000000000014610e445760405162461bcd60e51b815260206004820152602860248201527f455243313135353a204552433131353552656365697665722072656a6563746560448201527f6420746f6b656e730000000000000000000000000000000000000000000000006064820152608401610313565b6001600160a01b0384163b156111f5576040517fbc197c810000000000000000000000000000000000000000000000000000000081526001600160a01b0385169063bc197c8190611c64908990899088908890889060040161266c565b602060405180830381600087803b158015611c7e57600080fd5b505af1925050508015611cae575060408051601f3d908101601f19168201909252611cab9181019061258b565b60015b611cba57611aa66125a8565b7fffffffff0000000000000000000000000000000000000000000000000000000081167fbc197c810000000000000000000000000000000000000000000000000000000014610e445760405162461bcd60e51b815260206004820152602860248201527f455243313135353a204552433131353552656365697665722072656a6563746560448201527f6420746f6b656e730000000000000000000000000000000000000000000000006064820152608401610313565b80356001600160a01b0381168114611d8857600080fd5b919050565b60008060408385031215611da057600080fd5b611da983611d71565b946020939093013593505050565b7fffffffff0000000000000000000000000000000000000000000000000000000081168114610ba357600080fd5b600060208284031215611df757600080fd5b8135611e0281611db7565b9392505050565b634e487b7160e01b600052604160045260246000fd5b601f19601f830116810181811067ffffffffffffffff82111715611e4557611e45611e09565b6040525050565b600082601f830112611e5d57600080fd5b813567ffffffffffffffff811115611e7757611e77611e09565b604051611e8e6020601f19601f8501160182611e1f565b818152846020838601011115611ea357600080fd5b816020850160208301376000918101602001919091529392505050565b600080600060608486031215611ed557600080fd5b611ede84611d71565b925060208401359150604084013567ffffffffffffffff811115611f0157600080fd5b611f0d86828701611e4c565b9150509250925092565b600060208284031215611f2957600080fd5b5035919050565b6000815180845260005b81811015611f5657602081850181015186830182015201611f3a565b81811115611f68576000602083870101525b50601f01601f19169290920160200192915050565b602081526000611e026020830184611f30565b600067ffffffffffffffff821115611faa57611faa611e09565b5060051b60200190565b600082601f830112611fc557600080fd5b81356020611fd282611f90565b604051611fdf8282611e1f565b83815260059390931b8501820192828101915086841115611fff57600080fd5b8286015b8481101561201a5780358352918301918301612003565b509695505050505050565b600080600080600060a0868803121561203d57600080fd5b61204686611d71565b945061205460208701611d71565b9350604086013567ffffffffffffffff8082111561207157600080fd5b61207d89838a01611fb4565b9450606088013591508082111561209357600080fd5b61209f89838a01611fb4565b935060808801359150808211156120b557600080fd5b506120c288828901611e4c565b9150509295509295909350565b600080604083850312156120e257600080fd5b823567ffffffffffffffff808211156120fa57600080fd5b818501915085601f83011261210e57600080fd5b8135602061211b82611f90565b6040516121288282611e1f565b83815260059390931b850182019282810191508984111561214857600080fd5b948201945b8386101561216d5761215e86611d71565b8252948201949082019061214d565b9650508601359250508082111561218357600080fd5b5061219085828601611fb4565b9150509250929050565b600081518084526020808501945080840160005b838110156121ca578151875295820195908201906001016121ae565b509495945050505050565b602081526000611e02602083018461219a565b6000806000606084860312156121fd57600080fd5b61220684611d71565b9250602084013567ffffffffffffffff8082111561222357600080fd5b61222f87838801611fb4565b9350604086013591508082111561224557600080fd5b50611f0d86828701611fb4565b6000806000806080858703121561226857600080fd5b61227185611d71565b93506020850135925060408501359150606085013567ffffffffffffffff81111561229b57600080fd5b6122a787828801611e4c565b91505092959194509250565b600080604083850312156122c657600080fd5b6122cf83611d71565b9150602083013580151581146122e457600080fd5b809150509250929050565b6000806000806080858703121561230557600080fd5b61230e85611d71565b9350602085013567ffffffffffffffff8082111561232b57600080fd5b61233788838901611fb4565b9450604087013591508082111561234d57600080fd5b61235988838901611fb4565b9350606087013591508082111561236f57600080fd5b506122a787828801611e4c565b6000806040838503121561238f57600080fd5b61239883611d71565b91506123a660208401611d71565b90509250929050565b600080600080600060a086880312156123c757600080fd5b6123d086611d71565b94506123de60208701611d71565b93506040860135925060608601359150608086013567ffffffffffffffff81111561240857600080fd5b6120c288828901611e4c565b60006020828403121561242657600080fd5b611e0282611d71565b60008060006060848603121561244457600080fd5b61244d84611d71565b95602085013595506040909401359392505050565b634e487b7160e01b600052601160045260246000fd5b6000821982111561248b5761248b612462565b500190565b600181811c908216806124a457607f821691505b602082108114156124c557634e487b7160e01b600052602260045260246000fd5b50919050565b634e487b7160e01b600052603260045260246000fd5b60007fffffffffffffffffffffffffffffffffffffffffffffffffffffffffffffffff82141561251357612513612462565b5060010190565b60408152600061252d604083018561219a565b828103602084015261253f818561219a565b95945050505050565b60006001600160a01b03808816835280871660208401525084604083015283606083015260a0608083015261258060a0830184611f30565b979650505050505050565b60006020828403121561259d57600080fd5b8151611e0281611db7565b600060033d11156125c15760046000803e5060005160e01c5b90565b600060443d10156125d25790565b6040517ffffffffffffffffffffffffffffffffffffffffffffffffffffffffffffffffc803d016004833e81513d67ffffffffffffffff816024840111818411171561262057505050505090565b82850191508151818111156126385750505050505090565b843d87010160208285010111156126525750505050505090565b61266160208286010187611e1f565b509095945050505050565b60006001600160a01b03808816835280871660208401525060a0604083015261269860a083018661219a565b82810360608401526126aa818661219a565b905082810360808401526126be8185611f30565b9897505050505050505056fea26469706673582212209aff9e0ca7bc6a9b6104eaf0edd7b038d34ec15d9815a81cb2d76e20176d108b64736f6c63430008080033"
}